{
  "_format": "hh-sol-artifact-1",
  "contractName": "Staking",
  "sourceName": "contracts/Staking.sol",
  "abi": [
    {
      "inputs": [
        {
          "internalType": "uint256",
          "name": "currentEtherPrice",
          "type": "uint256"
        },
        {
          "internalType": "uint256",
          "name": "stakingFee",
          "type": "uint256"
        }
      ],
      "stateMutability": "payable",
      "type": "constructor"
    },
    {
      "anonymous": false,
      "inputs": [
        {
          "indexed": false,
          "internalType": "uint256",
          "name": "tokenId",
          "type": "uint256"
        },
        {
          "indexed": true,
          "internalType": "address",
          "name": "tokenAddress",
          "type": "address"
        },
        {
          "indexed": true,
          "internalType": "string",
          "name": "name",
          "type": "string"
        },
        {
          "indexed": false,
          "internalType": "string",
          "name": "symbol",
          "type": "string"
        },
        {
          "indexed": false,
          "internalType": "uint256",
          "name": "usdtPrice",
          "type": "uint256"
        },
        {
          "indexed": true,
          "internalType": "uint256",
          "name": "ethInUsdtPrice",
          "type": "uint256"
        },
        {
          "indexed": false,
          "internalType": "uint256",
          "name": "apy",
          "type": "uint256"
        }
      ],
      "name": "AddToken",
      "type": "event"
    },
    {
      "anonymous": false,
      "inputs": [
        {
          "indexed": true,
          "internalType": "address",
          "name": "previousOwner",
          "type": "address"
        },
        {
          "indexed": true,
          "internalType": "address",
          "name": "newOwner",
          "type": "address"
        }
      ],
      "name": "OwnershipTransferred",
      "type": "event"
    },
    {
      "anonymous": false,
      "inputs": [
        {
          "indexed": true,
          "internalType": "uint256",
          "name": "positionId",
          "type": "uint256"
        },
        {
          "indexed": true,
          "internalType": "address",
          "name": "owner",
          "type": "address"
        },
        {
          "indexed": false,
          "internalType": "uint256",
          "name": "stakingAmount",
          "type": "uint256"
        },
        {
          "indexed": true,
          "internalType": "uint256",
          "name": "date",
          "type": "uint256"
        }
      ],
      "name": "StakingTokens",
      "type": "event"
    },
    {
      "anonymous": false,
      "inputs": [
        {
          "indexed": true,
          "internalType": "uint256",
          "name": "positionId",
          "type": "uint256"
        },
        {
          "indexed": true,
          "internalType": "address",
          "name": "owner",
          "type": "address"
        },
        {
          "indexed": false,
          "internalType": "uint256",
          "name": "rewardPaid",
          "type": "uint256"
        },
        {
          "indexed": true,
          "internalType": "uint256",
          "name": "date",
          "type": "uint256"
        }
      ],
      "name": "StopStaking",
      "type": "event"
    },
    {
      "inputs": [],
      "name": "STAKINGFEE",
      "outputs": [
        {
          "internalType": "uint256",
          "name": "",
          "type": "uint256"
        }
      ],
      "stateMutability": "view",
      "type": "function"
    },
    {
      "inputs": [
        {
          "internalType": "address",
          "name": "tokenAddress",
          "type": "address"
        },
        {
          "internalType": "string",
          "name": "name",
          "type": "string"
        },
        {
          "internalType": "string",
          "name": "symbol",
          "type": "string"
        },
        {
          "internalType": "uint256",
          "name": "usdtPrice",
          "type": "uint256"
        },
        {
          "internalType": "uint256",
          "name": "apy",
          "type": "uint256"
        }
      ],
      "name": "addToken",
      "outputs": [],
      "stateMutability": "nonpayable",
      "type": "function"
    },
    {
      "inputs": [
        {
          "internalType": "uint256",
          "name": "apy",
          "type": "uint256"
        },
        {
          "internalType": "uint256",
          "name": "ethValue",
          "type": "uint256"
        },
        {
          "internalType": "uint256",
          "name": "daysNumber",
          "type": "uint256"
        }
      ],
      "name": "calculateInterest",
      "outputs": [
        {
          "internalType": "uint256",
          "name": "",
          "type": "uint256"
        }
      ],
      "stateMutability": "pure",
      "type": "function"
    },
    {
      "inputs": [
        {
          "internalType": "uint256",
          "name": "index",
          "type": "uint256"
        }
      ],
      "name": "closePosition",
      "outputs": [],
      "stateMutability": "nonpayable",
      "type": "function"
    },
    {
      "inputs": [],
      "name": "ethInUsdtPrice",
      "outputs": [
        {
          "internalType": "uint256",
          "name": "",
          "type": "uint256"
        }
      ],
      "stateMutability": "view",
      "type": "function"
    },
    {
      "inputs": [
        {
          "internalType": "uint256",
          "name": "positionid",
          "type": "uint256"
        }
      ],
      "name": "getPositionById",
      "outputs": [
        {
          "components": [
            {
              "internalType": "uint256",
              "name": "positionId",
              "type": "uint256"
            },
            {
              "internalType": "address",
              "name": "owner",
              "type": "address"
            },
            {
              "internalType": "string",
              "name": "name",
              "type": "string"
            },
            {
              "internalType": "string",
              "name": "symbol",
              "type": "string"
            },
            {
              "internalType": "uint256",
              "name": "createDate",
              "type": "uint256"
            },
            {
              "internalType": "uint256",
              "name": "apy",
              "type": "uint256"
            },
            {
              "internalType": "uint256",
              "name": "tokenQuantity",
              "type": "uint256"
            },
            {
              "internalType": "uint256",
              "name": "usdtValue",
              "type": "uint256"
            },
            {
              "internalType": "uint256",
              "name": "ethValue",
              "type": "uint256"
            },
            {
              "internalType": "bool",
              "name": "open",
              "type": "bool"
            }
          ],
          "internalType": "struct Staking.Position",
          "name": "",
          "type": "tuple"
        }
      ],
      "stateMutability": "view",
      "type": "function"
    },
    {
      "inputs": [
        {
          "internalType": "address",
          "name": "user",
          "type": "address"
        }
      ],
      "name": "getPositionsIdsByAddress",
      "outputs": [
        {
          "internalType": "uint256[]",
          "name": "",
          "type": "uint256[]"
        }
      ],
      "stateMutability": "view",
      "type": "function"
    },
    {
      "inputs": [
        {
          "internalType": "string",
          "name": "symbol",
          "type": "string"
        }
      ],
      "name": "getToken",
      "outputs": [
        {
          "components": [
            {
              "internalType": "uint256",
              "name": "tokenId",
              "type": "uint256"
            },
            {
              "internalType": "string",
              "name": "tokenName",
              "type": "string"
            },
            {
              "internalType": "string",
              "name": "tokenSymbol",
              "type": "string"
            },
            {
              "internalType": "address",
              "name": "tokenAddress",
              "type": "address"
            },
            {
              "internalType": "uint256",
              "name": "usdtPrice",
              "type": "uint256"
            },
            {
              "internalType": "uint256",
              "name": "ethPrice",
              "type": "uint256"
            },
            {
              "internalType": "uint256",
              "name": "apy",
              "type": "uint256"
            }
          ],
          "internalType": "struct Staking.Token",
          "name": "",
          "type": "tuple"
        }
      ],
      "stateMutability": "view",
      "type": "function"
    },
    {
      "inputs": [],
      "name": "getTokensSymbols",
      "outputs": [
        {
          "internalType": "string[]",
          "name": "",
          "type": "string[]"
        }
      ],
      "stateMutability": "view",
      "type": "function"
    },
    {
      "inputs": [],
      "name": "owner",
      "outputs": [
        {
          "internalType": "address",
          "name": "",
          "type": "address"
        }
      ],
      "stateMutability": "view",
      "type": "function"
    },
    {
      "inputs": [
        {
          "internalType": "uint256",
          "name": "",
          "type": "uint256"
        }
      ],
      "name": "positions",
      "outputs": [
        {
          "internalType": "uint256",
          "name": "positionId",
          "type": "uint256"
        },
        {
          "internalType": "address",
          "name": "owner",
          "type": "address"
        },
        {
          "internalType": "string",
          "name": "name",
          "type": "string"
        },
        {
          "internalType": "string",
          "name": "symbol",
          "type": "string"
        },
        {
          "internalType": "uint256",
          "name": "createDate",
          "type": "uint256"
        },
        {
          "internalType": "uint256",
          "name": "apy",
          "type": "uint256"
        },
        {
          "internalType": "uint256",
          "name": "tokenQuantity",
          "type": "uint256"
        },
        {
          "internalType": "uint256",
          "name": "usdtValue",
          "type": "uint256"
        },
        {
          "internalType": "uint256",
          "name": "ethValue",
          "type": "uint256"
        },
        {
          "internalType": "bool",
          "name": "open",
          "type": "bool"
        }
      ],
      "stateMutability": "view",
      "type": "function"
    },
    {
      "inputs": [
        {
          "internalType": "address",
          "name": "",
          "type": "address"
        },
        {
          "internalType": "uint256",
          "name": "",
          "type": "uint256"
        }
      ],
      "name": "positionsIdsByAddress",
      "outputs": [
        {
          "internalType": "uint256",
          "name": "",
          "type": "uint256"
        }
      ],
      "stateMutability": "view",
      "type": "function"
    },
    {
      "inputs": [],
      "name": "renounceOwnership",
      "outputs": [],
      "stateMutability": "nonpayable",
      "type": "function"
    },
    {
      "inputs": [
        {
          "internalType": "string",
          "name": "symbol",
          "type": "string"
        },
        {
          "internalType": "uint256",
          "name": "stakingAmount",
          "type": "uint256"
        }
      ],
      "name": "stakeTokens",
      "outputs": [],
      "stateMutability": "payable",
      "type": "function"
    },
    {
      "inputs": [
        {
          "internalType": "string",
          "name": "",
          "type": "string"
        }
      ],
      "name": "stakedTokens",
      "outputs": [
        {
          "internalType": "uint256",
          "name": "",
          "type": "uint256"
        }
      ],
      "stateMutability": "view",
      "type": "function"
    },
    {
      "inputs": [
        {
          "internalType": "uint256",
          "name": "",
          "type": "uint256"
        }
      ],
      "name": "tokenSymbols",
      "outputs": [
        {
          "internalType": "string",
          "name": "",
          "type": "string"
        }
      ],
      "stateMutability": "view",
      "type": "function"
    },
    {
      "inputs": [
        {
          "internalType": "string",
          "name": "",
          "type": "string"
        }
      ],
      "name": "tokens",
      "outputs": [
        {
          "internalType": "uint256",
          "name": "tokenId",
          "type": "uint256"
        },
        {
          "internalType": "string",
          "name": "tokenName",
          "type": "string"
        },
        {
          "internalType": "string",
          "name": "tokenSymbol",
          "type": "string"
        },
        {
          "internalType": "address",
          "name": "tokenAddress",
          "type": "address"
        },
        {
          "internalType": "uint256",
          "name": "usdtPrice",
          "type": "uint256"
        },
        {
          "internalType": "uint256",
          "name": "ethPrice",
          "type": "uint256"
        },
        {
          "internalType": "uint256",
          "name": "apy",
          "type": "uint256"
        }
      ],
      "stateMutability": "view",
      "type": "function"
    },
    {
      "inputs": [
        {
          "internalType": "address",
          "name": "newOwner",
          "type": "address"
        }
      ],
      "name": "transferOwnership",
      "outputs": [],
      "stateMutability": "nonpayable",
      "type": "function"
    }
  ],
  "bytecode": "0x608060405260405162003d7338038062003d73833981810160405281019062000029919062000313565b620000496200003d620000b660201b60201c565b620000be60201b60201c565b600081116200008f576040517f08c379a00000000000000000000000000000000000000000000000000000000081526004016200008690620003bb565b60405180910390fd5b8060048190555081600381905550620000ae336200018260201b60201c565b5050620004e7565b600033905090565b60008060009054906101000a900473ffffffffffffffffffffffffffffffffffffffff169050816000806101000a81548173ffffffffffffffffffffffffffffffffffffffff021916908373ffffffffffffffffffffffffffffffffffffffff1602179055508173ffffffffffffffffffffffffffffffffffffffff168173ffffffffffffffffffffffffffffffffffffffff167f8be0079c531659141344cd1fd0a4f28419497f9722a3daafe3b4186f6b6457e060405160405180910390a35050565b620001926200021960201b60201c565b600073ffffffffffffffffffffffffffffffffffffffff168173ffffffffffffffffffffffffffffffffffffffff16141562000205576040517f08c379a0000000000000000000000000000000000000000000000000000000008152600401620001fc9062000453565b60405180910390fd5b6200021681620000be60201b60201c565b50565b62000229620000b660201b60201c565b73ffffffffffffffffffffffffffffffffffffffff166200024f620002aa60201b60201c565b73ffffffffffffffffffffffffffffffffffffffff1614620002a8576040517f08c379a00000000000000000000000000000000000000000000000000000000081526004016200029f90620004c5565b60405180910390fd5b565b60008060009054906101000a900473ffffffffffffffffffffffffffffffffffffffff16905090565b600080fd5b6000819050919050565b620002ed81620002d8565b8114620002f957600080fd5b50565b6000815190506200030d81620002e2565b92915050565b600080604083850312156200032d576200032c620002d3565b5b60006200033d85828601620002fc565b92505060206200035085828601620002fc565b9150509250929050565b600082825260208201905092915050565b7f7374616b696e67206665652063616e2774206265203000000000000000000000600082015250565b6000620003a36016836200035a565b9150620003b0826200036b565b602082019050919050565b60006020820190508181036000830152620003d68162000394565b9050919050565b7f4f776e61626c653a206e6577206f776e657220697320746865207a65726f206160008201527f6464726573730000000000000000000000000000000000000000000000000000602082015250565b60006200043b6026836200035a565b91506200044882620003dd565b604082019050919050565b600060208201905081810360008301526200046e816200042c565b9050919050565b7f4f776e61626c653a2063616c6c6572206973206e6f7420746865206f776e6572600082015250565b6000620004ad6020836200035a565b9150620004ba8262000475565b602082019050919050565b60006020820190508181036000830152620004e0816200049e565b9050919050565b61387c80620004f76000396000f3fe6080604052600436106101095760003560e01c80638f6a8c8211610095578063c11234d211610064578063c11234d214610391578063c1733f68146103bc578063c41cc502146103f9578063e575175814610436578063f2fde38b1461047357610109565b80638f6a8c82146102ba57806399fbab88146102e5578063a126d6011461032b578063b838ec861461035457610109565b80636e7ddea8116100dc5780636e7ddea8146101f6578063715018a61461023357806371d772ca1461024a57806380c84901146102665780638da5cb5b1461028f57610109565b806304c2320b1461010e57806305e1bd8c146101515780633f8ca0701461018e5780634151a035146101b9575b600080fd5b34801561011a57600080fd5b50610135600480360381019061013091906124dc565b61049c565b6040516101489796959493929190612607565b60405180910390f35b34801561015d57600080fd5b50610178600480360381019061017391906126b0565b610624565b6040516101859190612703565b60405180910390f35b34801561019a57600080fd5b506101a3610660565b6040516101b0919061282a565b60405180910390f35b3480156101c557600080fd5b506101e060048036038101906101db9190612878565b610739565b6040516101ed9190612963565b60405180910390f35b34801561020257600080fd5b5061021d60048036038101906102189190612985565b6107d0565b60405161022a91906129b2565b60405180910390f35b34801561023f57600080fd5b5061024861087c565b005b610264600480360381019061025f9190612a34565b610890565b005b34801561027257600080fd5b5061028d60048036038101906102889190612a94565b610f7e565b005b34801561029b57600080fd5b506102a461131a565b6040516102b19190612b50565b60405180910390f35b3480156102c657600080fd5b506102cf611343565b6040516102dc9190612703565b60405180910390f35b3480156102f157600080fd5b5061030c60048036038101906103079190612985565b611349565b6040516103229a99989796959493929190612b86565b60405180910390f35b34801561033757600080fd5b50610352600480360381019061034d9190612985565b6114da565b005b34801561036057600080fd5b5061037b60048036038101906103769190612985565b611b68565b6040516103889190612d2f565b60405180910390f35b34801561039d57600080fd5b506103a6611d67565b6040516103b39190612703565b60405180910390f35b3480156103c857600080fd5b506103e360048036038101906103de9190612d51565b611d6d565b6040516103f09190612e41565b60405180910390f35b34801561040557600080fd5b50610420600480360381019061041b91906124dc565b611f4a565b60405161042d9190612703565b60405180910390f35b34801561044257600080fd5b5061045d60048036038101906104589190612e63565b611f78565b60405161046a9190612703565b60405180910390f35b34801561047f57600080fd5b5061049a60048036038101906104959190612878565b611fa9565b005b6007818051602081018201805184825260208301602085012081835280955050505050506000915090508060000154908060010180546104db90612ed2565b80601f016020809104026020016040519081016040528092919081815260200182805461050790612ed2565b80156105545780601f1061052957610100808354040283529160200191610554565b820191906000526020600020905b81548152906001019060200180831161053757829003601f168201915b50505050509080600201805461056990612ed2565b80601f016020809104026020016040519081016040528092919081815260200182805461059590612ed2565b80156105e25780601f106105b7576101008083540402835291602001916105e2565b820191906000526020600020905b8154815290600101906020018083116105c557829003601f168201915b5050505050908060030160009054906101000a900473ffffffffffffffffffffffffffffffffffffffff16908060040154908060050154908060060154905087565b600061016d6127108385876106399190612f33565b6106439190612f33565b61064d9190612fbc565b6106579190612fbc565b90509392505050565b60606006805480602002602001604051908101604052809291908181526020016000905b828210156107305783829060005260206000200180546106a390612ed2565b80601f01602080910402602001604051908101604052809291908181526020018280546106cf90612ed2565b801561071c5780601f106106f15761010080835404028352916020019161071c565b820191906000526020600020905b8154815290600101906020018083116106ff57829003601f168201915b505050505081526020019060010190610684565b50505050905090565b6060600960008373ffffffffffffffffffffffffffffffffffffffff1673ffffffffffffffffffffffffffffffffffffffff1681526020019081526020016000208054806020026020016040519081016040528092919081815260200182805480156107c457602002820191906000526020600020905b8154815260200190600101908083116107b0575b50505050509050919050565b600681815481106107e057600080fd5b9060005260206000200160009150905080546107fb90612ed2565b80601f016020809104026020016040519081016040528092919081815260200182805461082790612ed2565b80156108745780601f1061084957610100808354040283529160200191610874565b820191906000526020600020905b81548152906001019060200180831161085757829003601f168201915b505050505081565b61088461202d565b61088e60006120ab565b565b60045434146108d4576040517f08c379a00000000000000000000000000000000000000000000000000000000081526004016108cb90613039565b60405180910390fd5b60008111610917576040517f08c379a000000000000000000000000000000000000000000000000000000000815260040161090e906130a5565b60405180910390fd5b60006007848460405161092b9291906130f5565b908152602001604051809103902060000154141561097e576040517f08c379a000000000000000000000000000000000000000000000000000000000815260040161097590613180565b60405180910390fd5b6000600784846040516109929291906130f5565b908152602001604051809103902060030160009054906101000a900473ffffffffffffffffffffffffffffffffffffffff16905060008173ffffffffffffffffffffffffffffffffffffffff166370a08231336040518263ffffffff1660e01b8152600401610a019190612b50565b60206040518083038186803b158015610a1957600080fd5b505afa158015610a2d573d6000803e3d6000fd5b505050506040513d601f19601f82011682018060405250810190610a5191906131b5565b905082811015610a96576040517f08c379a0000000000000000000000000000000000000000000000000000000008152600401610a8d9061322e565b60405180910390fd5b8173ffffffffffffffffffffffffffffffffffffffff166323b872dd3330866040518463ffffffff1660e01b8152600401610ad39392919061324e565b602060405180830381600087803b158015610aed57600080fd5b505af1158015610b01573d6000803e3d6000fd5b505050506040513d601f19601f82011682018060405250810190610b2591906132b1565b50604051806101400160405280610b3c600261216f565b81526020013373ffffffffffffffffffffffffffffffffffffffff16815260200160078787604051610b6f9291906130f5565b90815260200160405180910390206001018054610b8b90612ed2565b80601f0160208091040260200160405190810160405280929190818152602001828054610bb790612ed2565b8015610c045780601f10610bd957610100808354040283529160200191610c04565b820191906000526020600020905b815481529060010190602001808311610be757829003601f168201915b5050505050815260200160078787604051610c209291906130f5565b90815260200160405180910390206002018054610c3c90612ed2565b80601f0160208091040260200160405190810160405280929190818152602001828054610c6890612ed2565b8015610cb55780601f10610c8a57610100808354040283529160200191610cb5565b820191906000526020600020905b815481529060010190602001808311610c9857829003601f168201915b5050505050815260200142815260200160078787604051610cd79291906130f5565b90815260200160405180910390206006015481526020018481526020018460078888604051610d079291906130f5565b908152602001604051809103902060040154610d239190612f33565b81526020016003548560078989604051610d3e9291906130f5565b908152602001604051809103902060050154610d5a9190612f33565b610d649190612fbc565b81526020016001151581525060086000610d7e600261216f565b81526020019081526020016000206000820151816000015560208201518160010160006101000a81548173ffffffffffffffffffffffffffffffffffffffff021916908373ffffffffffffffffffffffffffffffffffffffff1602179055506040820151816002019080519060200190610df992919061219b565b506060820151816003019080519060200190610e1692919061219b565b506080820151816004015560a0820151816005015560c0820151816006015560e0820151816007015561010082015181600801556101208201518160090160006101000a81548160ff021916908315150217905550905050600960003373ffffffffffffffffffffffffffffffffffffffff1673ffffffffffffffffffffffffffffffffffffffff168152602001908152602001600020610eb7600261216f565b908060018154018082558091505060019003906000526020600020016000909190919091505582600a8686604051610ef09291906130f5565b90815260200160405180910390206000828254610f0d91906132de565b92505081905550423373ffffffffffffffffffffffffffffffffffffffff16610f36600261216f565b7f63533e81aae6b9e24fb194a7f1ec44c3e4e22b141d035edd7c6b2319b32ec41f86604051610f659190612703565b60405180910390a4610f77600261217d565b5050505050565b610f8661202d565b600073ffffffffffffffffffffffffffffffffffffffff168773ffffffffffffffffffffffffffffffffffffffff161415610ff6576040517f08c379a0000000000000000000000000000000000000000000000000000000008152600401610fed90613380565b60405180910390fd5b60008686905011801561100c5750600084849050115b61104b576040517f08c379a0000000000000000000000000000000000000000000000000000000008152600401611042906133ec565b60405180910390fd5b6000821161108e576040517f08c379a000000000000000000000000000000000000000000000000000000000815260040161108590613458565b60405180910390fd5b611098600161217d565b60006110a4600161216f565b905060006040518060e0016040528083815260200189898080601f016020809104026020016040519081016040528093929190818152602001838380828437600081840152601f19601f82011690508083019250505050505050815260200187878080601f016020809104026020016040519081016040528093929190818152602001838380828437600081840152601f19601f8201169050808301925050505050505081526020018a73ffffffffffffffffffffffffffffffffffffffff1681526020018581526020016003548661117d9190612fbc565b815260200184815250905060068686909180600181540180825580915050600190039060005260206000200160009091929091929091929091925091906111c5929190612221565b5080600787876040516111d99291906130f5565b908152602001604051809103902060008201518160000155602082015181600101908051906020019061120d92919061219b565b50604082015181600201908051906020019061122a92919061219b565b5060608201518160030160006101000a81548173ffffffffffffffffffffffffffffffffffffffff021916908373ffffffffffffffffffffffffffffffffffffffff1602179055506080820151816004015560a0820151816005015560c08201518160060155905050600354846112a19190612fbc565b88886040516112b19291906130f5565b60405180910390208a73ffffffffffffffffffffffffffffffffffffffff167f1b365ef75dc6c5169a1f2ea4ad062fdc4945dbaf2edb42b9f1a82bb5633016b0858a8a8a8a6040516113079594939291906134a5565b60405180910390a4505050505050505050565b60008060009054906101000a900473ffffffffffffffffffffffffffffffffffffffff16905090565b60045481565b60086020528060005260406000206000915090508060000154908060010160009054906101000a900473ffffffffffffffffffffffffffffffffffffffff169080600201805461139890612ed2565b80601f01602080910402602001604051908101604052809291908181526020018280546113c490612ed2565b80156114115780601f106113e657610100808354040283529160200191611411565b820191906000526020600020905b8154815290600101906020018083116113f457829003601f168201915b50505050509080600301805461142690612ed2565b80601f016020809104026020016040519081016040528092919081815260200182805461145290612ed2565b801561149f5780601f106114745761010080835404028352916020019161149f565b820191906000526020600020905b81548152906001019060200180831161148257829003601f168201915b5050505050908060040154908060050154908060060154908060070154908060080154908060090160009054906101000a900460ff1690508a565b600560009054906101000a900460ff161561152a576040517f08c379a00000000000000000000000000000000000000000000000000000000081526004016115219061353f565b60405180910390fd5b6001600560006101000a81548160ff02191690831515021790555060006008600083815260200190815260200160002060405180610140016040529081600082015481526020016001820160009054906101000a900473ffffffffffffffffffffffffffffffffffffffff1673ffffffffffffffffffffffffffffffffffffffff1673ffffffffffffffffffffffffffffffffffffffff1681526020016002820180546115d690612ed2565b80601f016020809104026020016040519081016040528092919081815260200182805461160290612ed2565b801561164f5780601f106116245761010080835404028352916020019161164f565b820191906000526020600020905b81548152906001019060200180831161163257829003601f168201915b5050505050815260200160038201805461166890612ed2565b80601f016020809104026020016040519081016040528092919081815260200182805461169490612ed2565b80156116e15780601f106116b6576101008083540402835291602001916116e1565b820191906000526020600020905b8154815290600101906020018083116116c457829003601f168201915b5050505050815260200160048201548152602001600582015481526020016006820154815260200160078201548152602001600882015481526020016009820160009054906101000a900460ff16151515158152505090503373ffffffffffffffffffffffffffffffffffffffff16816020015173ffffffffffffffffffffffffffffffffffffffff16146117ab576040517f08c379a00000000000000000000000000000000000000000000000000000000081526004016117a2906135ab565b60405180910390fd5b600115158161012001511515146117f7576040517f08c379a00000000000000000000000000000000000000000000000000000000081526004016117ee90613617565b60405180910390fd5b8181600001511461183d576040517f08c379a000000000000000000000000000000000000000000000000000000000815260040161183490613683565b60405180910390fd5b8060c00151600a826060015160405161185691906136d4565b9081526020016040518091039020600082825461187391906136eb565b925050819055506007816060015160405161188e91906136d4565b908152602001604051809103902060030160009054906101000a900473ffffffffffffffffffffffffffffffffffffffff1673ffffffffffffffffffffffffffffffffffffffff1663a9059cbb338360c001516040518363ffffffff1660e01b81526004016118fe92919061371f565b602060405180830381600087803b15801561191857600080fd5b505af115801561192c573d6000803e3d6000fd5b505050506040513d601f19601f8201168201806040525081019061195091906132b1565b5060006018603c8084608001514261196891906136eb565b6119729190612fbc565b61197c9190612fbc565b6119869190612fbc565b9050600061199e8360a0015184610100015184610624565b90503373ffffffffffffffffffffffffffffffffffffffff166108fc829081150290604051600060405180830381858888f193505050501580156119e6573d6000803e3d6000fd5b5060008361012001901515908115158152505082600860008681526020019081526020016000206000820151816000015560208201518160010160006101000a81548173ffffffffffffffffffffffffffffffffffffffff021916908373ffffffffffffffffffffffffffffffffffffffff1602179055506040820151816002019080519060200190611a7a92919061219b565b506060820151816003019080519060200190611a9792919061219b565b506080820151816004015560a0820151816005015560c0820151816006015560e0820151816007015561010082015181600801556101208201518160090160006101000a81548160ff02191690831515021790555090505042836020015173ffffffffffffffffffffffffffffffffffffffff1684600001517fa42a490aa1900a6d1c3d471cd8016e85aff5ef5a201380d68ae837f63193394c84604051611b3f9190612703565b60405180910390a45050506000600560006101000a81548160ff02191690831515021790555050565b611b706122a7565b6008600083815260200190815260200160002060405180610140016040529081600082015481526020016001820160009054906101000a900473ffffffffffffffffffffffffffffffffffffffff1673ffffffffffffffffffffffffffffffffffffffff1673ffffffffffffffffffffffffffffffffffffffff168152602001600282018054611bff90612ed2565b80601f0160208091040260200160405190810160405280929190818152602001828054611c2b90612ed2565b8015611c785780601f10611c4d57610100808354040283529160200191611c78565b820191906000526020600020905b815481529060010190602001808311611c5b57829003601f168201915b50505050508152602001600382018054611c9190612ed2565b80601f0160208091040260200160405190810160405280929190818152602001828054611cbd90612ed2565b8015611d0a5780601f10611cdf57610100808354040283529160200191611d0a565b820191906000526020600020905b815481529060010190602001808311611ced57829003601f168201915b5050505050815260200160048201548152602001600582015481526020016006820154815260200160078201548152602001600882015481526020016009820160009054906101000a900460ff1615151515815250509050919050565b60035481565b611d75612312565b60078383604051611d879291906130f5565b90815260200160405180910390206040518060e001604052908160008201548152602001600182018054611dba90612ed2565b80601f0160208091040260200160405190810160405280929190818152602001828054611de690612ed2565b8015611e335780601f10611e0857610100808354040283529160200191611e33565b820191906000526020600020905b815481529060010190602001808311611e1657829003601f168201915b50505050508152602001600282018054611e4c90612ed2565b80601f0160208091040260200160405190810160405280929190818152602001828054611e7890612ed2565b8015611ec55780601f10611e9a57610100808354040283529160200191611ec5565b820191906000526020600020905b815481529060010190602001808311611ea857829003601f168201915b505050505081526020016003820160009054906101000a900473ffffffffffffffffffffffffffffffffffffffff1673ffffffffffffffffffffffffffffffffffffffff1673ffffffffffffffffffffffffffffffffffffffff1681526020016004820154815260200160058201548152602001600682015481525050905092915050565b600a818051602081018201805184825260208301602085012081835280955050505050506000915090505481565b60096020528160005260406000208181548110611f9457600080fd5b90600052602060002001600091509150505481565b611fb161202d565b600073ffffffffffffffffffffffffffffffffffffffff168173ffffffffffffffffffffffffffffffffffffffff161415612021576040517f08c379a0000000000000000000000000000000000000000000000000000000008152600401612018906137ba565b60405180910390fd5b61202a816120ab565b50565b612035612193565b73ffffffffffffffffffffffffffffffffffffffff1661205361131a565b73ffffffffffffffffffffffffffffffffffffffff16146120a9576040517f08c379a00000000000000000000000000000000000000000000000000000000081526004016120a090613826565b60405180910390fd5b565b60008060009054906101000a900473ffffffffffffffffffffffffffffffffffffffff169050816000806101000a81548173ffffffffffffffffffffffffffffffffffffffff021916908373ffffffffffffffffffffffffffffffffffffffff1602179055508173ffffffffffffffffffffffffffffffffffffffff168173ffffffffffffffffffffffffffffffffffffffff167f8be0079c531659141344cd1fd0a4f28419497f9722a3daafe3b4186f6b6457e060405160405180910390a35050565b600081600001549050919050565b6001816000016000828254019250508190555050565b600033905090565b8280546121a790612ed2565b90600052602060002090601f0160209004810192826121c95760008555612210565b82601f106121e257805160ff1916838001178555612210565b82800160010185558215612210579182015b8281111561220f5782518255916020019190600101906121f4565b5b50905061221d9190612365565b5090565b82805461222d90612ed2565b90600052602060002090601f01602090048101928261224f5760008555612296565b82601f1061226857803560ff1916838001178555612296565b82800160010185558215612296579182015b8281111561229557823582559160200191906001019061227a565b5b5090506122a39190612365565b5090565b60405180610140016040528060008152602001600073ffffffffffffffffffffffffffffffffffffffff168152602001606081526020016060815260200160008152602001600081526020016000815260200160008152602001600081526020016000151581525090565b6040518060e00160405280600081526020016060815260200160608152602001600073ffffffffffffffffffffffffffffffffffffffff1681526020016000815260200160008152602001600081525090565b5b8082111561237e576000816000905550600101612366565b5090565b6000604051905090565b600080fd5b600080fd5b600080fd5b600080fd5b6000601f19601f8301169050919050565b7f4e487b7100000000000000000000000000000000000000000000000000000000600052604160045260246000fd5b6123e9826123a0565b810181811067ffffffffffffffff82111715612408576124076123b1565b5b80604052505050565b600061241b612382565b905061242782826123e0565b919050565b600067ffffffffffffffff821115612447576124466123b1565b5b612450826123a0565b9050602081019050919050565b82818337600083830152505050565b600061247f61247a8461242c565b612411565b90508281526020810184848401111561249b5761249a61239b565b5b6124a684828561245d565b509392505050565b600082601f8301126124c3576124c2612396565b5b81356124d384826020860161246c565b91505092915050565b6000602082840312156124f2576124f161238c565b5b600082013567ffffffffffffffff8111156125105761250f612391565b5b61251c848285016124ae565b91505092915050565b6000819050919050565b61253881612525565b82525050565b600081519050919050565b600082825260208201905092915050565b60005b8381101561257857808201518184015260208101905061255d565b83811115612587576000848401525b50505050565b60006125988261253e565b6125a28185612549565b93506125b281856020860161255a565b6125bb816123a0565b840191505092915050565b600073ffffffffffffffffffffffffffffffffffffffff82169050919050565b60006125f1826125c6565b9050919050565b612601816125e6565b82525050565b600060e08201905061261c600083018a61252f565b818103602083015261262e818961258d565b90508181036040830152612642818861258d565b905061265160608301876125f8565b61265e608083018661252f565b61266b60a083018561252f565b61267860c083018461252f565b98975050505050505050565b61268d81612525565b811461269857600080fd5b50565b6000813590506126aa81612684565b92915050565b6000806000606084860312156126c9576126c861238c565b5b60006126d78682870161269b565b93505060206126e88682870161269b565b92505060406126f98682870161269b565b9150509250925092565b6000602082019050612718600083018461252f565b92915050565b600081519050919050565b600082825260208201905092915050565b6000819050602082019050919050565b600082825260208201905092915050565b60006127668261253e565b612770818561274a565b935061278081856020860161255a565b612789816123a0565b840191505092915050565b60006127a0838361275b565b905092915050565b6000602082019050919050565b60006127c08261271e565b6127ca8185612729565b9350836020820285016127dc8561273a565b8060005b8581101561281857848403895281516127f98582612794565b9450612804836127a8565b925060208a019950506001810190506127e0565b50829750879550505050505092915050565b6000602082019050818103600083015261284481846127b5565b905092915050565b612855816125e6565b811461286057600080fd5b50565b6000813590506128728161284c565b92915050565b60006020828403121561288e5761288d61238c565b5b600061289c84828501612863565b91505092915050565b600081519050919050565b600082825260208201905092915050565b6000819050602082019050919050565b6128da81612525565b82525050565b60006128ec83836128d1565b60208301905092915050565b6000602082019050919050565b6000612910826128a5565b61291a81856128b0565b9350612925836128c1565b8060005b8381101561295657815161293d88826128e0565b9750612948836128f8565b925050600181019050612929565b5085935050505092915050565b6000602082019050818103600083015261297d8184612905565b905092915050565b60006020828403121561299b5761299a61238c565b5b60006129a98482850161269b565b91505092915050565b600060208201905081810360008301526129cc818461258d565b905092915050565b600080fd5b600080fd5b60008083601f8401126129f4576129f3612396565b5b8235905067ffffffffffffffff811115612a1157612a106129d4565b5b602083019150836001820283011115612a2d57612a2c6129d9565b5b9250929050565b600080600060408486031215612a4d57612a4c61238c565b5b600084013567ffffffffffffffff811115612a6b57612a6a612391565b5b612a77868287016129de565b93509350506020612a8a8682870161269b565b9150509250925092565b600080600080600080600060a0888a031215612ab357612ab261238c565b5b6000612ac18a828b01612863565b975050602088013567ffffffffffffffff811115612ae257612ae1612391565b5b612aee8a828b016129de565b9650965050604088013567ffffffffffffffff811115612b1157612b10612391565b5b612b1d8a828b016129de565b94509450506060612b308a828b0161269b565b9250506080612b418a828b0161269b565b91505092959891949750929550565b6000602082019050612b6560008301846125f8565b92915050565b60008115159050919050565b612b8081612b6b565b82525050565b600061014082019050612b9c600083018d61252f565b612ba9602083018c6125f8565b8181036040830152612bbb818b61258d565b90508181036060830152612bcf818a61258d565b9050612bde608083018961252f565b612beb60a083018861252f565b612bf860c083018761252f565b612c0560e083018661252f565b612c1361010083018561252f565b612c21610120830184612b77565b9b9a5050505050505050505050565b612c39816125e6565b82525050565b612c4881612b6b565b82525050565b600061014083016000830151612c6760008601826128d1565b506020830151612c7a6020860182612c30565b5060408301518482036040860152612c92828261275b565b91505060608301518482036060860152612cac828261275b565b9150506080830151612cc160808601826128d1565b5060a0830151612cd460a08601826128d1565b5060c0830151612ce760c08601826128d1565b5060e0830151612cfa60e08601826128d1565b50610100830151612d0f6101008601826128d1565b50610120830151612d24610120860182612c3f565b508091505092915050565b60006020820190508181036000830152612d498184612c4e565b905092915050565b60008060208385031215612d6857612d6761238c565b5b600083013567ffffffffffffffff811115612d8657612d85612391565b5b612d92858286016129de565b92509250509250929050565b600060e083016000830151612db660008601826128d1565b5060208301518482036020860152612dce828261275b565b91505060408301518482036040860152612de8828261275b565b9150506060830151612dfd6060860182612c30565b506080830151612e1060808601826128d1565b5060a0830151612e2360a08601826128d1565b5060c0830151612e3660c08601826128d1565b508091505092915050565b60006020820190508181036000830152612e5b8184612d9e565b905092915050565b60008060408385031215612e7a57612e7961238c565b5b6000612e8885828601612863565b9250506020612e998582860161269b565b9150509250929050565b7f4e487b7100000000000000000000000000000000000000000000000000000000600052602260045260246000fd5b60006002820490506001821680612eea57607f821691505b60208210811415612efe57612efd612ea3565b5b50919050565b7f4e487b7100000000000000000000000000000000000000000000000000000000600052601160045260246000fd5b6000612f3e82612525565b9150612f4983612525565b9250817fffffffffffffffffffffffffffffffffffffffffffffffffffffffffffffffff0483118215151615612f8257612f81612f04565b5b828202905092915050565b7f4e487b7100000000000000000000000000000000000000000000000000000000600052601260045260246000fd5b6000612fc782612525565b9150612fd283612525565b925082612fe257612fe1612f8d565b5b828204905092915050565b7f796f75206d757374207061792066656520666f72207374616b696e6700000000600082015250565b6000613023601c83612549565b915061302e82612fed565b602082019050919050565b6000602082019050818103600083015261305281613016565b9050919050565b7f796f752063616e2774207374616b65203020746f6b656e730000000000000000600082015250565b600061308f601883612549565b915061309a82613059565b602082019050919050565b600060208201905081810360008301526130be81613082565b9050919050565b600081905092915050565b60006130dc83856130c5565b93506130e983858461245d565b82840190509392505050565b60006131028284866130d0565b91508190509392505050565b7f796f752063616e2774207374616b65206e6f74206578697374656e7420746f6b60008201527f656e000000000000000000000000000000000000000000000000000000000000602082015250565b600061316a602283612549565b91506131758261310e565b604082019050919050565b600060208201905081810360008301526131998161315d565b9050919050565b6000815190506131af81612684565b92915050565b6000602082840312156131cb576131ca61238c565b5b60006131d9848285016131a0565b91505092915050565b7f796f752068617665206e6f7420656e6f75676820746f6b656e73000000000000600082015250565b6000613218601a83612549565b9150613223826131e2565b602082019050919050565b600060208201905081810360008301526132478161320b565b9050919050565b600060608201905061326360008301866125f8565b61327060208301856125f8565b61327d604083018461252f565b949350505050565b61328e81612b6b565b811461329957600080fd5b50565b6000815190506132ab81613285565b92915050565b6000602082840312156132c7576132c661238c565b5b60006132d58482850161329c565b91505092915050565b60006132e982612525565b91506132f483612525565b9250827fffffffffffffffffffffffffffffffffffffffffffffffffffffffffffffffff0382111561332957613328612f04565b5b828201905092915050565b7f596f752063616e277420616464206e6f74206578697374696e6720746f6b656e600082015250565b600061336a602083612549565b915061337582613334565b602082019050919050565b600060208201905081810360008301526133998161335d565b9050919050565b7f796f7520646964206e6f7420656e746572206e616d65206f722073796d626f6c600082015250565b60006133d6602083612549565b91506133e1826133a0565b602082019050919050565b60006020820190508181036000830152613405816133c9565b9050919050565b7f70726963652063616e2774206265203000000000000000000000000000000000600082015250565b6000613442601083612549565b915061344d8261340c565b602082019050919050565b6000602082019050818103600083015261347181613435565b9050919050565b60006134848385612549565b935061349183858461245d565b61349a836123a0565b840190509392505050565b60006080820190506134ba600083018861252f565b81810360208301526134cd818688613478565b90506134dc604083018561252f565b6134e9606083018461252f565b9695505050505050565b7f7265656e7472616e637900000000000000000000000000000000000000000000600082015250565b6000613529600a83612549565b9150613534826134f3565b602082019050919050565b600060208201905081810360008301526135588161351c565b9050919050565b7f6e6f742074686520706f736974696f6e206f776e657200000000000000000000600082015250565b6000613595601683612549565b91506135a08261355f565b602082019050919050565b600060208201905081810360008301526135c481613588565b9050919050565b7f706f736974696f6e2068617320616c7265616479206265656e20636c6f736564600082015250565b6000613601602083612549565b915061360c826135cb565b602082019050919050565b60006020820190508181036000830152613630816135f4565b9050919050565b7f6e6f7420726967687420706f736974696f6e2069640000000000000000000000600082015250565b600061366d601583612549565b915061367882613637565b602082019050919050565b6000602082019050818103600083015261369c81613660565b9050919050565b60006136ae8261253e565b6136b881856130c5565b93506136c881856020860161255a565b80840191505092915050565b60006136e082846136a3565b915081905092915050565b60006136f682612525565b915061370183612525565b92508282101561371457613713612f04565b5b828203905092915050565b600060408201905061373460008301856125f8565b613741602083018461252f565b9392505050565b7f4f776e61626c653a206e6577206f776e657220697320746865207a65726f206160008201527f6464726573730000000000000000000000000000000000000000000000000000602082015250565b60006137a4602683612549565b91506137af82613748565b604082019050919050565b600060208201905081810360008301526137d381613797565b9050919050565b7f4f776e61626c653a2063616c6c6572206973206e6f7420746865206f776e6572600082015250565b6000613810602083612549565b915061381b826137da565b602082019050919050565b6000602082019050818103600083015261383f81613803565b905091905056fea26469706673582212201727b43e5a9c756f0e0ade181cdef3030d1dfd117131fac62dd118a07de2008464736f6c63430008090033",
  "linkReferences": {},
  "deployedLinkReferences": {}
}