{
  "_format": "hh-sol-artifact-1",
  "contractName": "Staking",
  "sourceName": "contracts/Staking.sol",
  "abi": [
    {
      "inputs": [
        {
          "internalType": "uint256",
          "name": "currentEtherPrice",
          "type": "uint256"
        },
        {
          "internalType": "uint256",
          "name": "stakingFee",
          "type": "uint256"
        }
      ],
      "stateMutability": "payable",
      "type": "constructor"
    },
    {
      "anonymous": false,
      "inputs": [
        {
          "indexed": false,
          "internalType": "uint256",
          "name": "tokenId",
          "type": "uint256"
        },
        {
          "indexed": true,
          "internalType": "address",
          "name": "tokenAddress",
          "type": "address"
        },
        {
          "indexed": true,
          "internalType": "string",
          "name": "name",
          "type": "string"
        },
        {
          "indexed": false,
          "internalType": "string",
          "name": "symbol",
          "type": "string"
        },
        {
          "indexed": false,
          "internalType": "uint256",
          "name": "usdtPrice",
          "type": "uint256"
        },
        {
          "indexed": true,
          "internalType": "uint256",
          "name": "ethInUsdtPrice",
          "type": "uint256"
        },
        {
          "indexed": false,
          "internalType": "uint256",
          "name": "apy",
          "type": "uint256"
        }
      ],
      "name": "AddToken",
      "type": "event"
    },
    {
      "anonymous": false,
      "inputs": [
        {
          "indexed": true,
          "internalType": "address",
          "name": "previousOwner",
          "type": "address"
        },
        {
          "indexed": true,
          "internalType": "address",
          "name": "newOwner",
          "type": "address"
        }
      ],
      "name": "OwnershipTransferred",
      "type": "event"
    },
    {
      "anonymous": false,
      "inputs": [
        {
          "indexed": true,
          "internalType": "uint256",
          "name": "positionId",
          "type": "uint256"
        },
        {
          "indexed": true,
          "internalType": "address",
          "name": "owner",
          "type": "address"
        },
        {
          "indexed": false,
          "internalType": "uint256",
          "name": "stakingAmount",
          "type": "uint256"
        },
        {
          "indexed": true,
          "internalType": "uint256",
          "name": "date",
          "type": "uint256"
        }
      ],
      "name": "StakingTokens",
      "type": "event"
    },
    {
      "anonymous": false,
      "inputs": [
        {
          "indexed": true,
          "internalType": "uint256",
          "name": "positionId",
          "type": "uint256"
        },
        {
          "indexed": true,
          "internalType": "address",
          "name": "owner",
          "type": "address"
        },
        {
          "indexed": false,
          "internalType": "uint256",
          "name": "rewardPaid",
          "type": "uint256"
        },
        {
          "indexed": true,
          "internalType": "uint256",
          "name": "date",
          "type": "uint256"
        }
      ],
      "name": "StopStaking",
      "type": "event"
    },
    {
      "inputs": [],
      "name": "STAKINGFEE",
      "outputs": [
        {
          "internalType": "uint256",
          "name": "",
          "type": "uint256"
        }
      ],
      "stateMutability": "view",
      "type": "function"
    },
    {
      "inputs": [
        {
          "internalType": "address",
          "name": "tokenAddress",
          "type": "address"
        },
        {
          "internalType": "string",
          "name": "name",
          "type": "string"
        },
        {
          "internalType": "string",
          "name": "symbol",
          "type": "string"
        },
        {
          "internalType": "uint256",
          "name": "usdtPrice",
          "type": "uint256"
        },
        {
          "internalType": "uint256",
          "name": "apy",
          "type": "uint256"
        }
      ],
      "name": "addToken",
      "outputs": [],
      "stateMutability": "nonpayable",
      "type": "function"
    },
    {
      "inputs": [
        {
          "internalType": "uint256",
          "name": "apy",
          "type": "uint256"
        },
        {
          "internalType": "uint256",
          "name": "value",
          "type": "uint256"
        },
        {
          "internalType": "uint256",
          "name": "daysNumber",
          "type": "uint256"
        }
      ],
      "name": "calculateInterest",
      "outputs": [
        {
          "internalType": "uint256",
          "name": "",
          "type": "uint256"
        }
      ],
      "stateMutability": "pure",
      "type": "function"
    },
    {
      "inputs": [
        {
          "internalType": "uint256",
          "name": "createdDate",
          "type": "uint256"
        }
      ],
      "name": "calculateNumberDays",
      "outputs": [
        {
          "internalType": "uint256",
          "name": "",
          "type": "uint256"
        }
      ],
      "stateMutability": "view",
      "type": "function"
    },
    {
      "inputs": [
        {
          "internalType": "uint256",
          "name": "index",
          "type": "uint256"
        }
      ],
      "name": "closePosition",
      "outputs": [],
      "stateMutability": "nonpayable",
      "type": "function"
    },
    {
      "inputs": [],
      "name": "ethInUsdtPrice",
      "outputs": [
        {
          "internalType": "uint256",
          "name": "",
          "type": "uint256"
        }
      ],
      "stateMutability": "view",
      "type": "function"
    },
    {
      "inputs": [
        {
          "internalType": "uint256",
          "name": "positionid",
          "type": "uint256"
        }
      ],
      "name": "getPositionById",
      "outputs": [
        {
          "components": [
            {
              "internalType": "uint256",
              "name": "positionId",
              "type": "uint256"
            },
            {
              "internalType": "address",
              "name": "owner",
              "type": "address"
            },
            {
              "internalType": "string",
              "name": "name",
              "type": "string"
            },
            {
              "internalType": "string",
              "name": "symbol",
              "type": "string"
            },
            {
              "internalType": "uint256",
              "name": "createDate",
              "type": "uint256"
            },
            {
              "internalType": "uint256",
              "name": "apy",
              "type": "uint256"
            },
            {
              "internalType": "uint256",
              "name": "tokenQuantity",
              "type": "uint256"
            },
            {
              "internalType": "uint256",
              "name": "usdtValue",
              "type": "uint256"
            },
            {
              "internalType": "uint256",
              "name": "ethValue",
              "type": "uint256"
            },
            {
              "internalType": "bool",
              "name": "open",
              "type": "bool"
            }
          ],
          "internalType": "struct Staking.Position",
          "name": "",
          "type": "tuple"
        }
      ],
      "stateMutability": "view",
      "type": "function"
    },
    {
      "inputs": [
        {
          "internalType": "address",
          "name": "user",
          "type": "address"
        }
      ],
      "name": "getPositionsIdsByAddress",
      "outputs": [
        {
          "internalType": "uint256[]",
          "name": "",
          "type": "uint256[]"
        }
      ],
      "stateMutability": "view",
      "type": "function"
    },
    {
      "inputs": [
        {
          "internalType": "string",
          "name": "symbol",
          "type": "string"
        }
      ],
      "name": "getStakedTokenTotalSupply",
      "outputs": [
        {
          "internalType": "uint256",
          "name": "",
          "type": "uint256"
        }
      ],
      "stateMutability": "view",
      "type": "function"
    },
    {
      "inputs": [
        {
          "internalType": "string",
          "name": "symbol",
          "type": "string"
        }
      ],
      "name": "getToken",
      "outputs": [
        {
          "components": [
            {
              "internalType": "uint256",
              "name": "tokenId",
              "type": "uint256"
            },
            {
              "internalType": "string",
              "name": "tokenName",
              "type": "string"
            },
            {
              "internalType": "string",
              "name": "tokenSymbol",
              "type": "string"
            },
            {
              "internalType": "address",
              "name": "tokenAddress",
              "type": "address"
            },
            {
              "internalType": "uint256",
              "name": "usdtPrice",
              "type": "uint256"
            },
            {
              "internalType": "uint256",
              "name": "ethPrice",
              "type": "uint256"
            },
            {
              "internalType": "uint256",
              "name": "apy",
              "type": "uint256"
            }
          ],
          "internalType": "struct Staking.Token",
          "name": "",
          "type": "tuple"
        }
      ],
      "stateMutability": "view",
      "type": "function"
    },
    {
      "inputs": [],
      "name": "getTokensSymbols",
      "outputs": [
        {
          "internalType": "string[]",
          "name": "",
          "type": "string[]"
        }
      ],
      "stateMutability": "view",
      "type": "function"
    },
    {
      "inputs": [],
      "name": "owner",
      "outputs": [
        {
          "internalType": "address",
          "name": "",
          "type": "address"
        }
      ],
      "stateMutability": "view",
      "type": "function"
    },
    {
      "inputs": [
        {
          "internalType": "uint256",
          "name": "",
          "type": "uint256"
        }
      ],
      "name": "positions",
      "outputs": [
        {
          "internalType": "uint256",
          "name": "positionId",
          "type": "uint256"
        },
        {
          "internalType": "address",
          "name": "owner",
          "type": "address"
        },
        {
          "internalType": "string",
          "name": "name",
          "type": "string"
        },
        {
          "internalType": "string",
          "name": "symbol",
          "type": "string"
        },
        {
          "internalType": "uint256",
          "name": "createDate",
          "type": "uint256"
        },
        {
          "internalType": "uint256",
          "name": "apy",
          "type": "uint256"
        },
        {
          "internalType": "uint256",
          "name": "tokenQuantity",
          "type": "uint256"
        },
        {
          "internalType": "uint256",
          "name": "usdtValue",
          "type": "uint256"
        },
        {
          "internalType": "uint256",
          "name": "ethValue",
          "type": "uint256"
        },
        {
          "internalType": "bool",
          "name": "open",
          "type": "bool"
        }
      ],
      "stateMutability": "view",
      "type": "function"
    },
    {
      "inputs": [
        {
          "internalType": "address",
          "name": "",
          "type": "address"
        },
        {
          "internalType": "uint256",
          "name": "",
          "type": "uint256"
        }
      ],
      "name": "positionsIdsByAddress",
      "outputs": [
        {
          "internalType": "uint256",
          "name": "",
          "type": "uint256"
        }
      ],
      "stateMutability": "view",
      "type": "function"
    },
    {
      "inputs": [],
      "name": "renounceOwnership",
      "outputs": [],
      "stateMutability": "nonpayable",
      "type": "function"
    },
    {
      "inputs": [
        {
          "internalType": "string",
          "name": "symbol",
          "type": "string"
        },
        {
          "internalType": "uint256",
          "name": "stakingAmount",
          "type": "uint256"
        }
      ],
      "name": "stakeTokens",
      "outputs": [],
      "stateMutability": "payable",
      "type": "function"
    },
    {
      "inputs": [
        {
          "internalType": "string",
          "name": "",
          "type": "string"
        }
      ],
      "name": "stakedTokens",
      "outputs": [
        {
          "internalType": "uint256",
          "name": "",
          "type": "uint256"
        }
      ],
      "stateMutability": "view",
      "type": "function"
    },
    {
      "inputs": [
        {
          "internalType": "uint256",
          "name": "",
          "type": "uint256"
        }
      ],
      "name": "tokenSymbols",
      "outputs": [
        {
          "internalType": "string",
          "name": "",
          "type": "string"
        }
      ],
      "stateMutability": "view",
      "type": "function"
    },
    {
      "inputs": [
        {
          "internalType": "string",
          "name": "",
          "type": "string"
        }
      ],
      "name": "tokens",
      "outputs": [
        {
          "internalType": "uint256",
          "name": "tokenId",
          "type": "uint256"
        },
        {
          "internalType": "string",
          "name": "tokenName",
          "type": "string"
        },
        {
          "internalType": "string",
          "name": "tokenSymbol",
          "type": "string"
        },
        {
          "internalType": "address",
          "name": "tokenAddress",
          "type": "address"
        },
        {
          "internalType": "uint256",
          "name": "usdtPrice",
          "type": "uint256"
        },
        {
          "internalType": "uint256",
          "name": "ethPrice",
          "type": "uint256"
        },
        {
          "internalType": "uint256",
          "name": "apy",
          "type": "uint256"
        }
      ],
      "stateMutability": "view",
      "type": "function"
    },
    {
      "inputs": [
        {
          "internalType": "address",
          "name": "newOwner",
          "type": "address"
        }
      ],
      "name": "transferOwnership",
      "outputs": [],
      "stateMutability": "nonpayable",
      "type": "function"
    }
  ],
  "bytecode": "0x608060405260405162003e6638038062003e66833981810160405281019062000029919062000313565b620000496200003d620000b660201b60201c565b620000be60201b60201c565b600081116200008f576040517f08c379a00000000000000000000000000000000000000000000000000000000081526004016200008690620003bb565b60405180910390fd5b8060048190555081600381905550620000ae336200018260201b60201c565b5050620004e7565b600033905090565b60008060009054906101000a900473ffffffffffffffffffffffffffffffffffffffff169050816000806101000a81548173ffffffffffffffffffffffffffffffffffffffff021916908373ffffffffffffffffffffffffffffffffffffffff1602179055508173ffffffffffffffffffffffffffffffffffffffff168173ffffffffffffffffffffffffffffffffffffffff167f8be0079c531659141344cd1fd0a4f28419497f9722a3daafe3b4186f6b6457e060405160405180910390a35050565b620001926200021960201b60201c565b600073ffffffffffffffffffffffffffffffffffffffff168173ffffffffffffffffffffffffffffffffffffffff16141562000205576040517f08c379a0000000000000000000000000000000000000000000000000000000008152600401620001fc9062000453565b60405180910390fd5b6200021681620000be60201b60201c565b50565b62000229620000b660201b60201c565b73ffffffffffffffffffffffffffffffffffffffff166200024f620002aa60201b60201c565b73ffffffffffffffffffffffffffffffffffffffff1614620002a8576040517f08c379a00000000000000000000000000000000000000000000000000000000081526004016200029f90620004c5565b60405180910390fd5b565b60008060009054906101000a900473ffffffffffffffffffffffffffffffffffffffff16905090565b600080fd5b6000819050919050565b620002ed81620002d8565b8114620002f957600080fd5b50565b6000815190506200030d81620002e2565b92915050565b600080604083850312156200032d576200032c620002d3565b5b60006200033d85828601620002fc565b92505060206200035085828601620002fc565b9150509250929050565b600082825260208201905092915050565b7f7374616b696e67206665652063616e2774206265203000000000000000000000600082015250565b6000620003a36016836200035a565b9150620003b0826200036b565b602082019050919050565b60006020820190508181036000830152620003d68162000394565b9050919050565b7f4f776e61626c653a206e6577206f776e657220697320746865207a65726f206160008201527f6464726573730000000000000000000000000000000000000000000000000000602082015250565b60006200043b6026836200035a565b91506200044882620003dd565b604082019050919050565b600060208201905081810360008301526200046e816200042c565b9050919050565b7f4f776e61626c653a2063616c6c6572206973206e6f7420746865206f776e6572600082015250565b6000620004ad6020836200035a565b9150620004ba8262000475565b602082019050919050565b60006020820190508181036000830152620004e0816200049e565b9050919050565b61396f80620004f76000396000f3fe60806040526004361061011f5760003560e01c80638da5cb5b116100a0578063c11234d211610064578063c11234d214610421578063c1733f681461044c578063c41cc50214610489578063e5751758146104c6578063f2fde38b146105035761011f565b80638da5cb5b1461031f5780638f6a8c821461034a57806399fbab8814610375578063a126d601146103bb578063b838ec86146103e45761011f565b80635442fb67116100e75780635442fb67146102495780636e7ddea814610286578063715018a6146102c357806371d772ca146102da57806380c84901146102f65761011f565b806304c2320b1461012457806305e1bd8c146101675780632406b5c0146101a45780633f8ca070146101e15780634151a0351461020c575b600080fd5b34801561013057600080fd5b5061014b600480360381019061014691906125cf565b61052c565b60405161015e97969594939291906126fa565b60405180910390f35b34801561017357600080fd5b5061018e600480360381019061018991906127a3565b6106b4565b60405161019b91906127f6565b60405180910390f35b3480156101b057600080fd5b506101cb60048036038101906101c69190612811565b6106f0565b6040516101d891906127f6565b60405180910390f35b3480156101ed57600080fd5b506101f6610728565b604051610203919061294a565b60405180910390f35b34801561021857600080fd5b50610233600480360381019061022e9190612998565b610801565b6040516102409190612a83565b60405180910390f35b34801561025557600080fd5b50610270600480360381019061026b9190612b05565b610898565b60405161027d91906127f6565b60405180910390f35b34801561029257600080fd5b506102ad60048036038101906102a89190612811565b6108c3565b6040516102ba9190612b52565b60405180910390f35b3480156102cf57600080fd5b506102d861096f565b005b6102f460048036038101906102ef9190612b74565b610983565b005b34801561030257600080fd5b5061031d60048036038101906103189190612bd4565b611071565b005b34801561032b57600080fd5b5061033461140d565b6040516103419190612c90565b60405180910390f35b34801561035657600080fd5b5061035f611436565b60405161036c91906127f6565b60405180910390f35b34801561038157600080fd5b5061039c60048036038101906103979190612811565b61143c565b6040516103b29a99989796959493929190612cc6565b60405180910390f35b3480156103c757600080fd5b506103e260048036038101906103dd9190612811565b6115cd565b005b3480156103f057600080fd5b5061040b60048036038101906104069190612811565b611c5b565b6040516104189190612e6f565b60405180910390f35b34801561042d57600080fd5b50610436611e5a565b60405161044391906127f6565b60405180910390f35b34801561045857600080fd5b50610473600480360381019061046e9190612b05565b611e60565b6040516104809190612f34565b60405180910390f35b34801561049557600080fd5b506104b060048036038101906104ab91906125cf565b61203d565b6040516104bd91906127f6565b60405180910390f35b3480156104d257600080fd5b506104ed60048036038101906104e89190612f56565b61206b565b6040516104fa91906127f6565b60405180910390f35b34801561050f57600080fd5b5061052a60048036038101906105259190612998565b61209c565b005b60078180516020810182018051848252602083016020850120818352809550505050505060009150905080600001549080600101805461056b90612fc5565b80601f016020809104026020016040519081016040528092919081815260200182805461059790612fc5565b80156105e45780601f106105b9576101008083540402835291602001916105e4565b820191906000526020600020905b8154815290600101906020018083116105c757829003601f168201915b5050505050908060020180546105f990612fc5565b80601f016020809104026020016040519081016040528092919081815260200182805461062590612fc5565b80156106725780601f1061064757610100808354040283529160200191610672565b820191906000526020600020905b81548152906001019060200180831161065557829003601f168201915b5050505050908060030160009054906101000a900473ffffffffffffffffffffffffffffffffffffffff16908060040154908060050154908060060154905087565b600061016d6127108385876106c99190613026565b6106d39190613026565b6106dd91906130af565b6106e791906130af565b90509392505050565b60006018603c80844261070391906130e0565b61070d91906130af565b61071791906130af565b61072191906130af565b9050919050565b60606006805480602002602001604051908101604052809291908181526020016000905b828210156107f857838290600052602060002001805461076b90612fc5565b80601f016020809104026020016040519081016040528092919081815260200182805461079790612fc5565b80156107e45780601f106107b9576101008083540402835291602001916107e4565b820191906000526020600020905b8154815290600101906020018083116107c757829003601f168201915b50505050508152602001906001019061074c565b50505050905090565b6060600960008373ffffffffffffffffffffffffffffffffffffffff1673ffffffffffffffffffffffffffffffffffffffff16815260200190815260200160002080548060200260200160405190810160405280929190818152602001828054801561088c57602002820191906000526020600020905b815481526020019060010190808311610878575b50505050509050919050565b6000600a83836040516108ac929190613144565b908152602001604051809103902054905092915050565b600681815481106108d357600080fd5b9060005260206000200160009150905080546108ee90612fc5565b80601f016020809104026020016040519081016040528092919081815260200182805461091a90612fc5565b80156109675780601f1061093c57610100808354040283529160200191610967565b820191906000526020600020905b81548152906001019060200180831161094a57829003601f168201915b505050505081565b610977612120565b610981600061219e565b565b60045434146109c7576040517f08c379a00000000000000000000000000000000000000000000000000000000081526004016109be906131a9565b60405180910390fd5b60008111610a0a576040517f08c379a0000000000000000000000000000000000000000000000000000000008152600401610a0190613215565b60405180910390fd5b600060078484604051610a1e929190613144565b9081526020016040518091039020600001541415610a71576040517f08c379a0000000000000000000000000000000000000000000000000000000008152600401610a68906132a7565b60405180910390fd5b600060078484604051610a85929190613144565b908152602001604051809103902060030160009054906101000a900473ffffffffffffffffffffffffffffffffffffffff16905060008173ffffffffffffffffffffffffffffffffffffffff166370a08231336040518263ffffffff1660e01b8152600401610af49190612c90565b60206040518083038186803b158015610b0c57600080fd5b505afa158015610b20573d6000803e3d6000fd5b505050506040513d601f19601f82011682018060405250810190610b4491906132dc565b905082811015610b89576040517f08c379a0000000000000000000000000000000000000000000000000000000008152600401610b8090613355565b60405180910390fd5b8173ffffffffffffffffffffffffffffffffffffffff166323b872dd3330866040518463ffffffff1660e01b8152600401610bc693929190613375565b602060405180830381600087803b158015610be057600080fd5b505af1158015610bf4573d6000803e3d6000fd5b505050506040513d601f19601f82011682018060405250810190610c1891906133d8565b50604051806101400160405280610c2f6002612262565b81526020013373ffffffffffffffffffffffffffffffffffffffff16815260200160078787604051610c62929190613144565b90815260200160405180910390206001018054610c7e90612fc5565b80601f0160208091040260200160405190810160405280929190818152602001828054610caa90612fc5565b8015610cf75780601f10610ccc57610100808354040283529160200191610cf7565b820191906000526020600020905b815481529060010190602001808311610cda57829003601f168201915b5050505050815260200160078787604051610d13929190613144565b90815260200160405180910390206002018054610d2f90612fc5565b80601f0160208091040260200160405190810160405280929190818152602001828054610d5b90612fc5565b8015610da85780601f10610d7d57610100808354040283529160200191610da8565b820191906000526020600020905b815481529060010190602001808311610d8b57829003601f168201915b5050505050815260200142815260200160078787604051610dca929190613144565b90815260200160405180910390206006015481526020018481526020018460078888604051610dfa929190613144565b908152602001604051809103902060040154610e169190613026565b81526020016003548560078989604051610e31929190613144565b908152602001604051809103902060050154610e4d9190613026565b610e5791906130af565b81526020016001151581525060086000610e716002612262565b81526020019081526020016000206000820151816000015560208201518160010160006101000a81548173ffffffffffffffffffffffffffffffffffffffff021916908373ffffffffffffffffffffffffffffffffffffffff1602179055506040820151816002019080519060200190610eec92919061228e565b506060820151816003019080519060200190610f0992919061228e565b506080820151816004015560a0820151816005015560c0820151816006015560e0820151816007015561010082015181600801556101208201518160090160006101000a81548160ff021916908315150217905550905050600960003373ffffffffffffffffffffffffffffffffffffffff1673ffffffffffffffffffffffffffffffffffffffff168152602001908152602001600020610faa6002612262565b908060018154018082558091505060019003906000526020600020016000909190919091505582600a8686604051610fe3929190613144565b908152602001604051809103902060008282546110009190613405565b92505081905550423373ffffffffffffffffffffffffffffffffffffffff166110296002612262565b7f63533e81aae6b9e24fb194a7f1ec44c3e4e22b141d035edd7c6b2319b32ec41f8660405161105891906127f6565b60405180910390a461106a6002612270565b5050505050565b611079612120565b600073ffffffffffffffffffffffffffffffffffffffff168773ffffffffffffffffffffffffffffffffffffffff1614156110e9576040517f08c379a00000000000000000000000000000000000000000000000000000000081526004016110e0906134a7565b60405180910390fd5b6000868690501180156110ff5750600084849050115b61113e576040517f08c379a000000000000000000000000000000000000000000000000000000000815260040161113590613513565b60405180910390fd5b60008211611181576040517f08c379a00000000000000000000000000000000000000000000000000000000081526004016111789061357f565b60405180910390fd5b61118b6001612270565b60006111976001612262565b905060006040518060e0016040528083815260200189898080601f016020809104026020016040519081016040528093929190818152602001838380828437600081840152601f19601f82011690508083019250505050505050815260200187878080601f016020809104026020016040519081016040528093929190818152602001838380828437600081840152601f19601f8201169050808301925050505050505081526020018a73ffffffffffffffffffffffffffffffffffffffff1681526020018581526020016003548661127091906130af565b815260200184815250905060068686909180600181540180825580915050600190039060005260206000200160009091929091929091929091925091906112b8929190612314565b5080600787876040516112cc929190613144565b908152602001604051809103902060008201518160000155602082015181600101908051906020019061130092919061228e565b50604082015181600201908051906020019061131d92919061228e565b5060608201518160030160006101000a81548173ffffffffffffffffffffffffffffffffffffffff021916908373ffffffffffffffffffffffffffffffffffffffff1602179055506080820151816004015560a0820151816005015560c082015181600601559050506003548461139491906130af565b88886040516113a4929190613144565b60405180910390208a73ffffffffffffffffffffffffffffffffffffffff167f1b365ef75dc6c5169a1f2ea4ad062fdc4945dbaf2edb42b9f1a82bb5633016b0858a8a8a8a6040516113fa9594939291906135cc565b60405180910390a4505050505050505050565b60008060009054906101000a900473ffffffffffffffffffffffffffffffffffffffff16905090565b60045481565b60086020528060005260406000206000915090508060000154908060010160009054906101000a900473ffffffffffffffffffffffffffffffffffffffff169080600201805461148b90612fc5565b80601f01602080910402602001604051908101604052809291908181526020018280546114b790612fc5565b80156115045780601f106114d957610100808354040283529160200191611504565b820191906000526020600020905b8154815290600101906020018083116114e757829003601f168201915b50505050509080600301805461151990612fc5565b80601f016020809104026020016040519081016040528092919081815260200182805461154590612fc5565b80156115925780601f1061156757610100808354040283529160200191611592565b820191906000526020600020905b81548152906001019060200180831161157557829003601f168201915b5050505050908060040154908060050154908060060154908060070154908060080154908060090160009054906101000a900460ff1690508a565b600560009054906101000a900460ff161561161d576040517f08c379a000000000000000000000000000000000000000000000000000000000815260040161161490613666565b60405180910390fd5b6001600560006101000a81548160ff02191690831515021790555060006008600083815260200190815260200160002060405180610140016040529081600082015481526020016001820160009054906101000a900473ffffffffffffffffffffffffffffffffffffffff1673ffffffffffffffffffffffffffffffffffffffff1673ffffffffffffffffffffffffffffffffffffffff1681526020016002820180546116c990612fc5565b80601f01602080910402602001604051908101604052809291908181526020018280546116f590612fc5565b80156117425780601f1061171757610100808354040283529160200191611742565b820191906000526020600020905b81548152906001019060200180831161172557829003601f168201915b5050505050815260200160038201805461175b90612fc5565b80601f016020809104026020016040519081016040528092919081815260200182805461178790612fc5565b80156117d45780601f106117a9576101008083540402835291602001916117d4565b820191906000526020600020905b8154815290600101906020018083116117b757829003601f168201915b5050505050815260200160048201548152602001600582015481526020016006820154815260200160078201548152602001600882015481526020016009820160009054906101000a900460ff16151515158152505090503373ffffffffffffffffffffffffffffffffffffffff16816020015173ffffffffffffffffffffffffffffffffffffffff161461189e576040517f08c379a0000000000000000000000000000000000000000000000000000000008152600401611895906136d2565b60405180910390fd5b600115158161012001511515146118ea576040517f08c379a00000000000000000000000000000000000000000000000000000000081526004016118e19061373e565b60405180910390fd5b81816000015114611930576040517f08c379a0000000000000000000000000000000000000000000000000000000008152600401611927906137aa565b60405180910390fd5b8060c00151600a826060015160405161194991906137fb565b9081526020016040518091039020600082825461196691906130e0565b925050819055506007816060015160405161198191906137fb565b908152602001604051809103902060030160009054906101000a900473ffffffffffffffffffffffffffffffffffffffff1673ffffffffffffffffffffffffffffffffffffffff1663a9059cbb338360c001516040518363ffffffff1660e01b81526004016119f1929190613812565b602060405180830381600087803b158015611a0b57600080fd5b505af1158015611a1f573d6000803e3d6000fd5b505050506040513d601f19601f82011682018060405250810190611a4391906133d8565b5060006018603c80846080015142611a5b91906130e0565b611a6591906130af565b611a6f91906130af565b611a7991906130af565b90506000611a918360a00151846101000151846106b4565b90503373ffffffffffffffffffffffffffffffffffffffff166108fc829081150290604051600060405180830381858888f19350505050158015611ad9573d6000803e3d6000fd5b5060008361012001901515908115158152505082600860008681526020019081526020016000206000820151816000015560208201518160010160006101000a81548173ffffffffffffffffffffffffffffffffffffffff021916908373ffffffffffffffffffffffffffffffffffffffff1602179055506040820151816002019080519060200190611b6d92919061228e565b506060820151816003019080519060200190611b8a92919061228e565b506080820151816004015560a0820151816005015560c0820151816006015560e0820151816007015561010082015181600801556101208201518160090160006101000a81548160ff02191690831515021790555090505042836020015173ffffffffffffffffffffffffffffffffffffffff1684600001517fa42a490aa1900a6d1c3d471cd8016e85aff5ef5a201380d68ae837f63193394c84604051611c3291906127f6565b60405180910390a45050506000600560006101000a81548160ff02191690831515021790555050565b611c6361239a565b6008600083815260200190815260200160002060405180610140016040529081600082015481526020016001820160009054906101000a900473ffffffffffffffffffffffffffffffffffffffff1673ffffffffffffffffffffffffffffffffffffffff1673ffffffffffffffffffffffffffffffffffffffff168152602001600282018054611cf290612fc5565b80601f0160208091040260200160405190810160405280929190818152602001828054611d1e90612fc5565b8015611d6b5780601f10611d4057610100808354040283529160200191611d6b565b820191906000526020600020905b815481529060010190602001808311611d4e57829003601f168201915b50505050508152602001600382018054611d8490612fc5565b80601f0160208091040260200160405190810160405280929190818152602001828054611db090612fc5565b8015611dfd5780601f10611dd257610100808354040283529160200191611dfd565b820191906000526020600020905b815481529060010190602001808311611de057829003601f168201915b5050505050815260200160048201548152602001600582015481526020016006820154815260200160078201548152602001600882015481526020016009820160009054906101000a900460ff1615151515815250509050919050565b60035481565b611e68612405565b60078383604051611e7a929190613144565b90815260200160405180910390206040518060e001604052908160008201548152602001600182018054611ead90612fc5565b80601f0160208091040260200160405190810160405280929190818152602001828054611ed990612fc5565b8015611f265780601f10611efb57610100808354040283529160200191611f26565b820191906000526020600020905b815481529060010190602001808311611f0957829003601f168201915b50505050508152602001600282018054611f3f90612fc5565b80601f0160208091040260200160405190810160405280929190818152602001828054611f6b90612fc5565b8015611fb85780601f10611f8d57610100808354040283529160200191611fb8565b820191906000526020600020905b815481529060010190602001808311611f9b57829003601f168201915b505050505081526020016003820160009054906101000a900473ffffffffffffffffffffffffffffffffffffffff1673ffffffffffffffffffffffffffffffffffffffff1673ffffffffffffffffffffffffffffffffffffffff1681526020016004820154815260200160058201548152602001600682015481525050905092915050565b600a818051602081018201805184825260208301602085012081835280955050505050506000915090505481565b6009602052816000526040600020818154811061208757600080fd5b90600052602060002001600091509150505481565b6120a4612120565b600073ffffffffffffffffffffffffffffffffffffffff168173ffffffffffffffffffffffffffffffffffffffff161415612114576040517f08c379a000000000000000000000000000000000000000000000000000000000815260040161210b906138ad565b60405180910390fd5b61211d8161219e565b50565b612128612286565b73ffffffffffffffffffffffffffffffffffffffff1661214661140d565b73ffffffffffffffffffffffffffffffffffffffff161461219c576040517f08c379a000000000000000000000000000000000000000000000000000000000815260040161219390613919565b60405180910390fd5b565b60008060009054906101000a900473ffffffffffffffffffffffffffffffffffffffff169050816000806101000a81548173ffffffffffffffffffffffffffffffffffffffff021916908373ffffffffffffffffffffffffffffffffffffffff1602179055508173ffffffffffffffffffffffffffffffffffffffff168173ffffffffffffffffffffffffffffffffffffffff167f8be0079c531659141344cd1fd0a4f28419497f9722a3daafe3b4186f6b6457e060405160405180910390a35050565b600081600001549050919050565b6001816000016000828254019250508190555050565b600033905090565b82805461229a90612fc5565b90600052602060002090601f0160209004810192826122bc5760008555612303565b82601f106122d557805160ff1916838001178555612303565b82800160010185558215612303579182015b828111156123025782518255916020019190600101906122e7565b5b5090506123109190612458565b5090565b82805461232090612fc5565b90600052602060002090601f0160209004810192826123425760008555612389565b82601f1061235b57803560ff1916838001178555612389565b82800160010185558215612389579182015b8281111561238857823582559160200191906001019061236d565b5b5090506123969190612458565b5090565b60405180610140016040528060008152602001600073ffffffffffffffffffffffffffffffffffffffff168152602001606081526020016060815260200160008152602001600081526020016000815260200160008152602001600081526020016000151581525090565b6040518060e00160405280600081526020016060815260200160608152602001600073ffffffffffffffffffffffffffffffffffffffff1681526020016000815260200160008152602001600081525090565b5b80821115612471576000816000905550600101612459565b5090565b6000604051905090565b600080fd5b600080fd5b600080fd5b600080fd5b6000601f19601f8301169050919050565b7f4e487b7100000000000000000000000000000000000000000000000000000000600052604160045260246000fd5b6124dc82612493565b810181811067ffffffffffffffff821117156124fb576124fa6124a4565b5b80604052505050565b600061250e612475565b905061251a82826124d3565b919050565b600067ffffffffffffffff82111561253a576125396124a4565b5b61254382612493565b9050602081019050919050565b82818337600083830152505050565b600061257261256d8461251f565b612504565b90508281526020810184848401111561258e5761258d61248e565b5b612599848285612550565b509392505050565b600082601f8301126125b6576125b5612489565b5b81356125c684826020860161255f565b91505092915050565b6000602082840312156125e5576125e461247f565b5b600082013567ffffffffffffffff81111561260357612602612484565b5b61260f848285016125a1565b91505092915050565b6000819050919050565b61262b81612618565b82525050565b600081519050919050565b600082825260208201905092915050565b60005b8381101561266b578082015181840152602081019050612650565b8381111561267a576000848401525b50505050565b600061268b82612631565b612695818561263c565b93506126a581856020860161264d565b6126ae81612493565b840191505092915050565b600073ffffffffffffffffffffffffffffffffffffffff82169050919050565b60006126e4826126b9565b9050919050565b6126f4816126d9565b82525050565b600060e08201905061270f600083018a612622565b81810360208301526127218189612680565b905081810360408301526127358188612680565b905061274460608301876126eb565b6127516080830186612622565b61275e60a0830185612622565b61276b60c0830184612622565b98975050505050505050565b61278081612618565b811461278b57600080fd5b50565b60008135905061279d81612777565b92915050565b6000806000606084860312156127bc576127bb61247f565b5b60006127ca8682870161278e565b93505060206127db8682870161278e565b92505060406127ec8682870161278e565b9150509250925092565b600060208201905061280b6000830184612622565b92915050565b6000602082840312156128275761282661247f565b5b60006128358482850161278e565b91505092915050565b600081519050919050565b600082825260208201905092915050565b6000819050602082019050919050565b600082825260208201905092915050565b600061288682612631565b612890818561286a565b93506128a081856020860161264d565b6128a981612493565b840191505092915050565b60006128c0838361287b565b905092915050565b6000602082019050919050565b60006128e08261283e565b6128ea8185612849565b9350836020820285016128fc8561285a565b8060005b85811015612938578484038952815161291985826128b4565b9450612924836128c8565b925060208a01995050600181019050612900565b50829750879550505050505092915050565b6000602082019050818103600083015261296481846128d5565b905092915050565b612975816126d9565b811461298057600080fd5b50565b6000813590506129928161296c565b92915050565b6000602082840312156129ae576129ad61247f565b5b60006129bc84828501612983565b91505092915050565b600081519050919050565b600082825260208201905092915050565b6000819050602082019050919050565b6129fa81612618565b82525050565b6000612a0c83836129f1565b60208301905092915050565b6000602082019050919050565b6000612a30826129c5565b612a3a81856129d0565b9350612a45836129e1565b8060005b83811015612a76578151612a5d8882612a00565b9750612a6883612a18565b925050600181019050612a49565b5085935050505092915050565b60006020820190508181036000830152612a9d8184612a25565b905092915050565b600080fd5b600080fd5b60008083601f840112612ac557612ac4612489565b5b8235905067ffffffffffffffff811115612ae257612ae1612aa5565b5b602083019150836001820283011115612afe57612afd612aaa565b5b9250929050565b60008060208385031215612b1c57612b1b61247f565b5b600083013567ffffffffffffffff811115612b3a57612b39612484565b5b612b4685828601612aaf565b92509250509250929050565b60006020820190508181036000830152612b6c8184612680565b905092915050565b600080600060408486031215612b8d57612b8c61247f565b5b600084013567ffffffffffffffff811115612bab57612baa612484565b5b612bb786828701612aaf565b93509350506020612bca8682870161278e565b9150509250925092565b600080600080600080600060a0888a031215612bf357612bf261247f565b5b6000612c018a828b01612983565b975050602088013567ffffffffffffffff811115612c2257612c21612484565b5b612c2e8a828b01612aaf565b9650965050604088013567ffffffffffffffff811115612c5157612c50612484565b5b612c5d8a828b01612aaf565b94509450506060612c708a828b0161278e565b9250506080612c818a828b0161278e565b91505092959891949750929550565b6000602082019050612ca560008301846126eb565b92915050565b60008115159050919050565b612cc081612cab565b82525050565b600061014082019050612cdc600083018d612622565b612ce9602083018c6126eb565b8181036040830152612cfb818b612680565b90508181036060830152612d0f818a612680565b9050612d1e6080830189612622565b612d2b60a0830188612622565b612d3860c0830187612622565b612d4560e0830186612622565b612d53610100830185612622565b612d61610120830184612cb7565b9b9a5050505050505050505050565b612d79816126d9565b82525050565b612d8881612cab565b82525050565b600061014083016000830151612da760008601826129f1565b506020830151612dba6020860182612d70565b5060408301518482036040860152612dd2828261287b565b91505060608301518482036060860152612dec828261287b565b9150506080830151612e0160808601826129f1565b5060a0830151612e1460a08601826129f1565b5060c0830151612e2760c08601826129f1565b5060e0830151612e3a60e08601826129f1565b50610100830151612e4f6101008601826129f1565b50610120830151612e64610120860182612d7f565b508091505092915050565b60006020820190508181036000830152612e898184612d8e565b905092915050565b600060e083016000830151612ea960008601826129f1565b5060208301518482036020860152612ec1828261287b565b91505060408301518482036040860152612edb828261287b565b9150506060830151612ef06060860182612d70565b506080830151612f0360808601826129f1565b5060a0830151612f1660a08601826129f1565b5060c0830151612f2960c08601826129f1565b508091505092915050565b60006020820190508181036000830152612f4e8184612e91565b905092915050565b60008060408385031215612f6d57612f6c61247f565b5b6000612f7b85828601612983565b9250506020612f8c8582860161278e565b9150509250929050565b7f4e487b7100000000000000000000000000000000000000000000000000000000600052602260045260246000fd5b60006002820490506001821680612fdd57607f821691505b60208210811415612ff157612ff0612f96565b5b50919050565b7f4e487b7100000000000000000000000000000000000000000000000000000000600052601160045260246000fd5b600061303182612618565b915061303c83612618565b9250817fffffffffffffffffffffffffffffffffffffffffffffffffffffffffffffffff048311821515161561307557613074612ff7565b5b828202905092915050565b7f4e487b7100000000000000000000000000000000000000000000000000000000600052601260045260246000fd5b60006130ba82612618565b91506130c583612618565b9250826130d5576130d4613080565b5b828204905092915050565b60006130eb82612618565b91506130f683612618565b92508282101561310957613108612ff7565b5b828203905092915050565b600081905092915050565b600061312b8385613114565b9350613138838584612550565b82840190509392505050565b600061315182848661311f565b91508190509392505050565b7f796f75206d757374207061792066656520666f72207374616b696e6700000000600082015250565b6000613193601c8361263c565b915061319e8261315d565b602082019050919050565b600060208201905081810360008301526131c281613186565b9050919050565b7f796f752063616e2774207374616b65203020746f6b656e730000000000000000600082015250565b60006131ff60188361263c565b915061320a826131c9565b602082019050919050565b6000602082019050818103600083015261322e816131f2565b9050919050565b7f796f752063616e2774207374616b65206e6f74206578697374656e7420746f6b60008201527f656e000000000000000000000000000000000000000000000000000000000000602082015250565b600061329160228361263c565b915061329c82613235565b604082019050919050565b600060208201905081810360008301526132c081613284565b9050919050565b6000815190506132d681612777565b92915050565b6000602082840312156132f2576132f161247f565b5b6000613300848285016132c7565b91505092915050565b7f796f752068617665206e6f7420656e6f75676820746f6b656e73000000000000600082015250565b600061333f601a8361263c565b915061334a82613309565b602082019050919050565b6000602082019050818103600083015261336e81613332565b9050919050565b600060608201905061338a60008301866126eb565b61339760208301856126eb565b6133a46040830184612622565b949350505050565b6133b581612cab565b81146133c057600080fd5b50565b6000815190506133d2816133ac565b92915050565b6000602082840312156133ee576133ed61247f565b5b60006133fc848285016133c3565b91505092915050565b600061341082612618565b915061341b83612618565b9250827fffffffffffffffffffffffffffffffffffffffffffffffffffffffffffffffff038211156134505761344f612ff7565b5b828201905092915050565b7f596f752063616e277420616464206e6f74206578697374696e6720746f6b656e600082015250565b600061349160208361263c565b915061349c8261345b565b602082019050919050565b600060208201905081810360008301526134c081613484565b9050919050565b7f796f7520646964206e6f7420656e746572206e616d65206f722073796d626f6c600082015250565b60006134fd60208361263c565b9150613508826134c7565b602082019050919050565b6000602082019050818103600083015261352c816134f0565b9050919050565b7f70726963652063616e2774206265203000000000000000000000000000000000600082015250565b600061356960108361263c565b915061357482613533565b602082019050919050565b600060208201905081810360008301526135988161355c565b9050919050565b60006135ab838561263c565b93506135b8838584612550565b6135c183612493565b840190509392505050565b60006080820190506135e16000830188612622565b81810360208301526135f481868861359f565b90506136036040830185612622565b6136106060830184612622565b9695505050505050565b7f7265656e7472616e637900000000000000000000000000000000000000000000600082015250565b6000613650600a8361263c565b915061365b8261361a565b602082019050919050565b6000602082019050818103600083015261367f81613643565b9050919050565b7f6e6f742074686520706f736974696f6e206f776e657200000000000000000000600082015250565b60006136bc60168361263c565b91506136c782613686565b602082019050919050565b600060208201905081810360008301526136eb816136af565b9050919050565b7f706f736974696f6e2068617320616c7265616479206265656e20636c6f736564600082015250565b600061372860208361263c565b9150613733826136f2565b602082019050919050565b600060208201905081810360008301526137578161371b565b9050919050565b7f6e6f7420726967687420706f736974696f6e2069640000000000000000000000600082015250565b600061379460158361263c565b915061379f8261375e565b602082019050919050565b600060208201905081810360008301526137c381613787565b9050919050565b60006137d582612631565b6137df8185613114565b93506137ef81856020860161264d565b80840191505092915050565b600061380782846137ca565b915081905092915050565b600060408201905061382760008301856126eb565b6138346020830184612622565b9392505050565b7f4f776e61626c653a206e6577206f776e657220697320746865207a65726f206160008201527f6464726573730000000000000000000000000000000000000000000000000000602082015250565b600061389760268361263c565b91506138a28261383b565b604082019050919050565b600060208201905081810360008301526138c68161388a565b9050919050565b7f4f776e61626c653a2063616c6c6572206973206e6f7420746865206f776e6572600082015250565b600061390360208361263c565b915061390e826138cd565b602082019050919050565b60006020820190508181036000830152613932816138f6565b905091905056fea2646970667358221220edad90fc4f5cf22529bd372d038d517e3bb2481fdc9a44dac15d64ca137bb04b64736f6c63430008090033",
  "linkReferences": {},
  "deployedLinkReferences": {}
}