{
  "_format": "hh-sol-artifact-1",
  "contractName": "Staking",
  "sourceName": "contracts/Staking.sol",
  "abi": [
    {
      "inputs": [
        {
          "internalType": "uint256",
          "name": "currentEtherPrice",
          "type": "uint256"
        },
        {
          "internalType": "uint256",
          "name": "stakingFee",
          "type": "uint256"
        }
      ],
      "stateMutability": "payable",
      "type": "constructor"
    },
    {
      "anonymous": false,
      "inputs": [
        {
          "indexed": false,
          "internalType": "uint256",
          "name": "tokenId",
          "type": "uint256"
        },
        {
          "indexed": true,
          "internalType": "address",
          "name": "tokenAddress",
          "type": "address"
        },
        {
          "indexed": true,
          "internalType": "string",
          "name": "name",
          "type": "string"
        },
        {
          "indexed": false,
          "internalType": "string",
          "name": "symbol",
          "type": "string"
        },
        {
          "indexed": false,
          "internalType": "uint256",
          "name": "usdtPrice",
          "type": "uint256"
        },
        {
          "indexed": true,
          "internalType": "uint256",
          "name": "ethInUsdtPrice",
          "type": "uint256"
        },
        {
          "indexed": false,
          "internalType": "uint256",
          "name": "apy",
          "type": "uint256"
        }
      ],
      "name": "AddToken",
      "type": "event"
    },
    {
      "anonymous": false,
      "inputs": [
        {
          "indexed": true,
          "internalType": "address",
          "name": "previousOwner",
          "type": "address"
        },
        {
          "indexed": true,
          "internalType": "address",
          "name": "newOwner",
          "type": "address"
        }
      ],
      "name": "OwnershipTransferred",
      "type": "event"
    },
    {
      "anonymous": false,
      "inputs": [
        {
          "indexed": true,
          "internalType": "uint256",
          "name": "positionId",
          "type": "uint256"
        },
        {
          "indexed": true,
          "internalType": "address",
          "name": "owner",
          "type": "address"
        },
        {
          "indexed": false,
          "internalType": "uint256",
          "name": "stakingAmount",
          "type": "uint256"
        },
        {
          "indexed": true,
          "internalType": "uint256",
          "name": "date",
          "type": "uint256"
        }
      ],
      "name": "StakingTokens",
      "type": "event"
    },
    {
      "anonymous": false,
      "inputs": [
        {
          "indexed": true,
          "internalType": "uint256",
          "name": "positionId",
          "type": "uint256"
        },
        {
          "indexed": true,
          "internalType": "address",
          "name": "owner",
          "type": "address"
        },
        {
          "indexed": false,
          "internalType": "uint256",
          "name": "rewardPaid",
          "type": "uint256"
        },
        {
          "indexed": true,
          "internalType": "uint256",
          "name": "date",
          "type": "uint256"
        }
      ],
      "name": "StopStaking",
      "type": "event"
    },
    {
      "inputs": [],
      "name": "STAKINGFEE",
      "outputs": [
        {
          "internalType": "uint256",
          "name": "",
          "type": "uint256"
        }
      ],
      "stateMutability": "view",
      "type": "function"
    },
    {
      "inputs": [
        {
          "internalType": "address",
          "name": "tokenAddress",
          "type": "address"
        },
        {
          "internalType": "string",
          "name": "name",
          "type": "string"
        },
        {
          "internalType": "string",
          "name": "symbol",
          "type": "string"
        },
        {
          "internalType": "uint256",
          "name": "usdtPrice",
          "type": "uint256"
        },
        {
          "internalType": "uint256",
          "name": "apy",
          "type": "uint256"
        }
      ],
      "name": "addToken",
      "outputs": [],
      "stateMutability": "nonpayable",
      "type": "function"
    },
    {
      "inputs": [
        {
          "internalType": "uint256",
          "name": "apy",
          "type": "uint256"
        },
        {
          "internalType": "uint256",
          "name": "ethValue",
          "type": "uint256"
        },
        {
          "internalType": "uint256",
          "name": "daysNumber",
          "type": "uint256"
        }
      ],
      "name": "calculateInterest",
      "outputs": [
        {
          "internalType": "uint256",
          "name": "",
          "type": "uint256"
        }
      ],
      "stateMutability": "pure",
      "type": "function"
    },
    {
      "inputs": [
        {
          "internalType": "uint256",
          "name": "index",
          "type": "uint256"
        }
      ],
      "name": "closePosition",
      "outputs": [],
      "stateMutability": "nonpayable",
      "type": "function"
    },
    {
      "inputs": [],
      "name": "ethInUsdtPrice",
      "outputs": [
        {
          "internalType": "uint256",
          "name": "",
          "type": "uint256"
        }
      ],
      "stateMutability": "view",
      "type": "function"
    },
    {
      "inputs": [
        {
          "internalType": "uint256",
          "name": "positionid",
          "type": "uint256"
        }
      ],
      "name": "getPositionById",
      "outputs": [
        {
          "components": [
            {
              "internalType": "uint256",
              "name": "positionId",
              "type": "uint256"
            },
            {
              "internalType": "address",
              "name": "owner",
              "type": "address"
            },
            {
              "internalType": "string",
              "name": "name",
              "type": "string"
            },
            {
              "internalType": "string",
              "name": "symbol",
              "type": "string"
            },
            {
              "internalType": "uint256",
              "name": "createDate",
              "type": "uint256"
            },
            {
              "internalType": "uint256",
              "name": "apy",
              "type": "uint256"
            },
            {
              "internalType": "uint256",
              "name": "tokenQuantity",
              "type": "uint256"
            },
            {
              "internalType": "uint256",
              "name": "usdtValue",
              "type": "uint256"
            },
            {
              "internalType": "uint256",
              "name": "ethValue",
              "type": "uint256"
            },
            {
              "internalType": "bool",
              "name": "open",
              "type": "bool"
            }
          ],
          "internalType": "struct Staking.Position",
          "name": "",
          "type": "tuple"
        }
      ],
      "stateMutability": "view",
      "type": "function"
    },
    {
      "inputs": [
        {
          "internalType": "address",
          "name": "user",
          "type": "address"
        }
      ],
      "name": "getPositionsIdsByAddress",
      "outputs": [
        {
          "internalType": "uint256[]",
          "name": "",
          "type": "uint256[]"
        }
      ],
      "stateMutability": "view",
      "type": "function"
    },
    {
      "inputs": [
        {
          "internalType": "string",
          "name": "symbol",
          "type": "string"
        }
      ],
      "name": "getStakedTokenTotalSupply",
      "outputs": [
        {
          "internalType": "uint256",
          "name": "",
          "type": "uint256"
        }
      ],
      "stateMutability": "view",
      "type": "function"
    },
    {
      "inputs": [
        {
          "internalType": "string",
          "name": "symbol",
          "type": "string"
        }
      ],
      "name": "getToken",
      "outputs": [
        {
          "components": [
            {
              "internalType": "uint256",
              "name": "tokenId",
              "type": "uint256"
            },
            {
              "internalType": "string",
              "name": "tokenName",
              "type": "string"
            },
            {
              "internalType": "string",
              "name": "tokenSymbol",
              "type": "string"
            },
            {
              "internalType": "address",
              "name": "tokenAddress",
              "type": "address"
            },
            {
              "internalType": "uint256",
              "name": "usdtPrice",
              "type": "uint256"
            },
            {
              "internalType": "uint256",
              "name": "ethPrice",
              "type": "uint256"
            },
            {
              "internalType": "uint256",
              "name": "apy",
              "type": "uint256"
            }
          ],
          "internalType": "struct Staking.Token",
          "name": "",
          "type": "tuple"
        }
      ],
      "stateMutability": "view",
      "type": "function"
    },
    {
      "inputs": [],
      "name": "getTokensSymbols",
      "outputs": [
        {
          "internalType": "string[]",
          "name": "",
          "type": "string[]"
        }
      ],
      "stateMutability": "view",
      "type": "function"
    },
    {
      "inputs": [],
      "name": "owner",
      "outputs": [
        {
          "internalType": "address",
          "name": "",
          "type": "address"
        }
      ],
      "stateMutability": "view",
      "type": "function"
    },
    {
      "inputs": [
        {
          "internalType": "uint256",
          "name": "",
          "type": "uint256"
        }
      ],
      "name": "positions",
      "outputs": [
        {
          "internalType": "uint256",
          "name": "positionId",
          "type": "uint256"
        },
        {
          "internalType": "address",
          "name": "owner",
          "type": "address"
        },
        {
          "internalType": "string",
          "name": "name",
          "type": "string"
        },
        {
          "internalType": "string",
          "name": "symbol",
          "type": "string"
        },
        {
          "internalType": "uint256",
          "name": "createDate",
          "type": "uint256"
        },
        {
          "internalType": "uint256",
          "name": "apy",
          "type": "uint256"
        },
        {
          "internalType": "uint256",
          "name": "tokenQuantity",
          "type": "uint256"
        },
        {
          "internalType": "uint256",
          "name": "usdtValue",
          "type": "uint256"
        },
        {
          "internalType": "uint256",
          "name": "ethValue",
          "type": "uint256"
        },
        {
          "internalType": "bool",
          "name": "open",
          "type": "bool"
        }
      ],
      "stateMutability": "view",
      "type": "function"
    },
    {
      "inputs": [
        {
          "internalType": "address",
          "name": "",
          "type": "address"
        },
        {
          "internalType": "uint256",
          "name": "",
          "type": "uint256"
        }
      ],
      "name": "positionsIdsByAddress",
      "outputs": [
        {
          "internalType": "uint256",
          "name": "",
          "type": "uint256"
        }
      ],
      "stateMutability": "view",
      "type": "function"
    },
    {
      "inputs": [],
      "name": "renounceOwnership",
      "outputs": [],
      "stateMutability": "nonpayable",
      "type": "function"
    },
    {
      "inputs": [
        {
          "internalType": "string",
          "name": "symbol",
          "type": "string"
        },
        {
          "internalType": "uint256",
          "name": "stakingAmount",
          "type": "uint256"
        }
      ],
      "name": "stakeTokens",
      "outputs": [],
      "stateMutability": "payable",
      "type": "function"
    },
    {
      "inputs": [
        {
          "internalType": "string",
          "name": "",
          "type": "string"
        }
      ],
      "name": "stakedTokens",
      "outputs": [
        {
          "internalType": "uint256",
          "name": "",
          "type": "uint256"
        }
      ],
      "stateMutability": "view",
      "type": "function"
    },
    {
      "inputs": [
        {
          "internalType": "uint256",
          "name": "",
          "type": "uint256"
        }
      ],
      "name": "tokenSymbols",
      "outputs": [
        {
          "internalType": "string",
          "name": "",
          "type": "string"
        }
      ],
      "stateMutability": "view",
      "type": "function"
    },
    {
      "inputs": [
        {
          "internalType": "string",
          "name": "",
          "type": "string"
        }
      ],
      "name": "tokens",
      "outputs": [
        {
          "internalType": "uint256",
          "name": "tokenId",
          "type": "uint256"
        },
        {
          "internalType": "string",
          "name": "tokenName",
          "type": "string"
        },
        {
          "internalType": "string",
          "name": "tokenSymbol",
          "type": "string"
        },
        {
          "internalType": "address",
          "name": "tokenAddress",
          "type": "address"
        },
        {
          "internalType": "uint256",
          "name": "usdtPrice",
          "type": "uint256"
        },
        {
          "internalType": "uint256",
          "name": "ethPrice",
          "type": "uint256"
        },
        {
          "internalType": "uint256",
          "name": "apy",
          "type": "uint256"
        }
      ],
      "stateMutability": "view",
      "type": "function"
    },
    {
      "inputs": [
        {
          "internalType": "address",
          "name": "newOwner",
          "type": "address"
        }
      ],
      "name": "transferOwnership",
      "outputs": [],
      "stateMutability": "nonpayable",
      "type": "function"
    }
  ],
  "bytecode": "0x608060405260405162003de638038062003de6833981810160405281019062000029919062000313565b620000496200003d620000b660201b60201c565b620000be60201b60201c565b600081116200008f576040517f08c379a00000000000000000000000000000000000000000000000000000000081526004016200008690620003bb565b60405180910390fd5b8060048190555081600381905550620000ae336200018260201b60201c565b5050620004e7565b600033905090565b60008060009054906101000a900473ffffffffffffffffffffffffffffffffffffffff169050816000806101000a81548173ffffffffffffffffffffffffffffffffffffffff021916908373ffffffffffffffffffffffffffffffffffffffff1602179055508173ffffffffffffffffffffffffffffffffffffffff168173ffffffffffffffffffffffffffffffffffffffff167f8be0079c531659141344cd1fd0a4f28419497f9722a3daafe3b4186f6b6457e060405160405180910390a35050565b620001926200021960201b60201c565b600073ffffffffffffffffffffffffffffffffffffffff168173ffffffffffffffffffffffffffffffffffffffff16141562000205576040517f08c379a0000000000000000000000000000000000000000000000000000000008152600401620001fc9062000453565b60405180910390fd5b6200021681620000be60201b60201c565b50565b62000229620000b660201b60201c565b73ffffffffffffffffffffffffffffffffffffffff166200024f620002aa60201b60201c565b73ffffffffffffffffffffffffffffffffffffffff1614620002a8576040517f08c379a00000000000000000000000000000000000000000000000000000000081526004016200029f90620004c5565b60405180910390fd5b565b60008060009054906101000a900473ffffffffffffffffffffffffffffffffffffffff16905090565b600080fd5b6000819050919050565b620002ed81620002d8565b8114620002f957600080fd5b50565b6000815190506200030d81620002e2565b92915050565b600080604083850312156200032d576200032c620002d3565b5b60006200033d85828601620002fc565b92505060206200035085828601620002fc565b9150509250929050565b600082825260208201905092915050565b7f7374616b696e67206665652063616e2774206265203000000000000000000000600082015250565b6000620003a36016836200035a565b9150620003b0826200036b565b602082019050919050565b60006020820190508181036000830152620003d68162000394565b9050919050565b7f4f776e61626c653a206e6577206f776e657220697320746865207a65726f206160008201527f6464726573730000000000000000000000000000000000000000000000000000602082015250565b60006200043b6026836200035a565b91506200044882620003dd565b604082019050919050565b600060208201905081810360008301526200046e816200042c565b9050919050565b7f4f776e61626c653a2063616c6c6572206973206e6f7420746865206f776e6572600082015250565b6000620004ad6020836200035a565b9150620004ba8262000475565b602082019050919050565b60006020820190508181036000830152620004e0816200049e565b9050919050565b6138ef80620004f76000396000f3fe6080604052600436106101145760003560e01c80638da5cb5b116100a0578063c11234d211610064578063c11234d2146103d9578063c1733f6814610404578063c41cc50214610441578063e57517581461047e578063f2fde38b146104bb57610114565b80638da5cb5b146102d75780638f6a8c821461030257806399fbab881461032d578063a126d60114610373578063b838ec861461039c57610114565b80635442fb67116100e75780635442fb67146102015780636e7ddea81461023e578063715018a61461027b57806371d772ca1461029257806380c84901146102ae57610114565b806304c2320b1461011957806305e1bd8c1461015c5780633f8ca070146101995780634151a035146101c4575b600080fd5b34801561012557600080fd5b50610140600480360381019061013b919061254f565b6104e4565b604051610153979695949392919061267a565b60405180910390f35b34801561016857600080fd5b50610183600480360381019061017e9190612723565b61066c565b6040516101909190612776565b60405180910390f35b3480156101a557600080fd5b506101ae6106a8565b6040516101bb919061289d565b60405180910390f35b3480156101d057600080fd5b506101eb60048036038101906101e691906128eb565b610781565b6040516101f891906129d6565b60405180910390f35b34801561020d57600080fd5b5061022860048036038101906102239190612a58565b610818565b6040516102359190612776565b60405180910390f35b34801561024a57600080fd5b5061026560048036038101906102609190612aa5565b610843565b6040516102729190612ad2565b60405180910390f35b34801561028757600080fd5b506102906108ef565b005b6102ac60048036038101906102a79190612af4565b610903565b005b3480156102ba57600080fd5b506102d560048036038101906102d09190612b54565b610ff1565b005b3480156102e357600080fd5b506102ec61138d565b6040516102f99190612c10565b60405180910390f35b34801561030e57600080fd5b506103176113b6565b6040516103249190612776565b60405180910390f35b34801561033957600080fd5b50610354600480360381019061034f9190612aa5565b6113bc565b60405161036a9a99989796959493929190612c46565b60405180910390f35b34801561037f57600080fd5b5061039a60048036038101906103959190612aa5565b61154d565b005b3480156103a857600080fd5b506103c360048036038101906103be9190612aa5565b611bdb565b6040516103d09190612def565b60405180910390f35b3480156103e557600080fd5b506103ee611dda565b6040516103fb9190612776565b60405180910390f35b34801561041057600080fd5b5061042b60048036038101906104269190612a58565b611de0565b6040516104389190612eb4565b60405180910390f35b34801561044d57600080fd5b506104686004803603810190610463919061254f565b611fbd565b6040516104759190612776565b60405180910390f35b34801561048a57600080fd5b506104a560048036038101906104a09190612ed6565b611feb565b6040516104b29190612776565b60405180910390f35b3480156104c757600080fd5b506104e260048036038101906104dd91906128eb565b61201c565b005b60078180516020810182018051848252602083016020850120818352809550505050505060009150905080600001549080600101805461052390612f45565b80601f016020809104026020016040519081016040528092919081815260200182805461054f90612f45565b801561059c5780601f106105715761010080835404028352916020019161059c565b820191906000526020600020905b81548152906001019060200180831161057f57829003601f168201915b5050505050908060020180546105b190612f45565b80601f01602080910402602001604051908101604052809291908181526020018280546105dd90612f45565b801561062a5780601f106105ff5761010080835404028352916020019161062a565b820191906000526020600020905b81548152906001019060200180831161060d57829003601f168201915b5050505050908060030160009054906101000a900473ffffffffffffffffffffffffffffffffffffffff16908060040154908060050154908060060154905087565b600061016d6127108385876106819190612fa6565b61068b9190612fa6565b610695919061302f565b61069f919061302f565b90509392505050565b60606006805480602002602001604051908101604052809291908181526020016000905b828210156107785783829060005260206000200180546106eb90612f45565b80601f016020809104026020016040519081016040528092919081815260200182805461071790612f45565b80156107645780601f1061073957610100808354040283529160200191610764565b820191906000526020600020905b81548152906001019060200180831161074757829003601f168201915b5050505050815260200190600101906106cc565b50505050905090565b6060600960008373ffffffffffffffffffffffffffffffffffffffff1673ffffffffffffffffffffffffffffffffffffffff16815260200190815260200160002080548060200260200160405190810160405280929190818152602001828054801561080c57602002820191906000526020600020905b8154815260200190600101908083116107f8575b50505050509050919050565b6000600a838360405161082c929190613090565b908152602001604051809103902054905092915050565b6006818154811061085357600080fd5b90600052602060002001600091509050805461086e90612f45565b80601f016020809104026020016040519081016040528092919081815260200182805461089a90612f45565b80156108e75780601f106108bc576101008083540402835291602001916108e7565b820191906000526020600020905b8154815290600101906020018083116108ca57829003601f168201915b505050505081565b6108f76120a0565b610901600061211e565b565b6004543414610947576040517f08c379a000000000000000000000000000000000000000000000000000000000815260040161093e906130f5565b60405180910390fd5b6000811161098a576040517f08c379a000000000000000000000000000000000000000000000000000000000815260040161098190613161565b60405180910390fd5b60006007848460405161099e929190613090565b90815260200160405180910390206000015414156109f1576040517f08c379a00000000000000000000000000000000000000000000000000000000081526004016109e8906131f3565b60405180910390fd5b600060078484604051610a05929190613090565b908152602001604051809103902060030160009054906101000a900473ffffffffffffffffffffffffffffffffffffffff16905060008173ffffffffffffffffffffffffffffffffffffffff166370a08231336040518263ffffffff1660e01b8152600401610a749190612c10565b60206040518083038186803b158015610a8c57600080fd5b505afa158015610aa0573d6000803e3d6000fd5b505050506040513d601f19601f82011682018060405250810190610ac49190613228565b905082811015610b09576040517f08c379a0000000000000000000000000000000000000000000000000000000008152600401610b00906132a1565b60405180910390fd5b8173ffffffffffffffffffffffffffffffffffffffff166323b872dd3330866040518463ffffffff1660e01b8152600401610b46939291906132c1565b602060405180830381600087803b158015610b6057600080fd5b505af1158015610b74573d6000803e3d6000fd5b505050506040513d601f19601f82011682018060405250810190610b989190613324565b50604051806101400160405280610baf60026121e2565b81526020013373ffffffffffffffffffffffffffffffffffffffff16815260200160078787604051610be2929190613090565b90815260200160405180910390206001018054610bfe90612f45565b80601f0160208091040260200160405190810160405280929190818152602001828054610c2a90612f45565b8015610c775780601f10610c4c57610100808354040283529160200191610c77565b820191906000526020600020905b815481529060010190602001808311610c5a57829003601f168201915b5050505050815260200160078787604051610c93929190613090565b90815260200160405180910390206002018054610caf90612f45565b80601f0160208091040260200160405190810160405280929190818152602001828054610cdb90612f45565b8015610d285780601f10610cfd57610100808354040283529160200191610d28565b820191906000526020600020905b815481529060010190602001808311610d0b57829003601f168201915b5050505050815260200142815260200160078787604051610d4a929190613090565b90815260200160405180910390206006015481526020018481526020018460078888604051610d7a929190613090565b908152602001604051809103902060040154610d969190612fa6565b81526020016003548560078989604051610db1929190613090565b908152602001604051809103902060050154610dcd9190612fa6565b610dd7919061302f565b81526020016001151581525060086000610df160026121e2565b81526020019081526020016000206000820151816000015560208201518160010160006101000a81548173ffffffffffffffffffffffffffffffffffffffff021916908373ffffffffffffffffffffffffffffffffffffffff1602179055506040820151816002019080519060200190610e6c92919061220e565b506060820151816003019080519060200190610e8992919061220e565b506080820151816004015560a0820151816005015560c0820151816006015560e0820151816007015561010082015181600801556101208201518160090160006101000a81548160ff021916908315150217905550905050600960003373ffffffffffffffffffffffffffffffffffffffff1673ffffffffffffffffffffffffffffffffffffffff168152602001908152602001600020610f2a60026121e2565b908060018154018082558091505060019003906000526020600020016000909190919091505582600a8686604051610f63929190613090565b90815260200160405180910390206000828254610f809190613351565b92505081905550423373ffffffffffffffffffffffffffffffffffffffff16610fa960026121e2565b7f63533e81aae6b9e24fb194a7f1ec44c3e4e22b141d035edd7c6b2319b32ec41f86604051610fd89190612776565b60405180910390a4610fea60026121f0565b5050505050565b610ff96120a0565b600073ffffffffffffffffffffffffffffffffffffffff168773ffffffffffffffffffffffffffffffffffffffff161415611069576040517f08c379a0000000000000000000000000000000000000000000000000000000008152600401611060906133f3565b60405180910390fd5b60008686905011801561107f5750600084849050115b6110be576040517f08c379a00000000000000000000000000000000000000000000000000000000081526004016110b59061345f565b60405180910390fd5b60008211611101576040517f08c379a00000000000000000000000000000000000000000000000000000000081526004016110f8906134cb565b60405180910390fd5b61110b60016121f0565b600061111760016121e2565b905060006040518060e0016040528083815260200189898080601f016020809104026020016040519081016040528093929190818152602001838380828437600081840152601f19601f82011690508083019250505050505050815260200187878080601f016020809104026020016040519081016040528093929190818152602001838380828437600081840152601f19601f8201169050808301925050505050505081526020018a73ffffffffffffffffffffffffffffffffffffffff168152602001858152602001600354866111f0919061302f565b81526020018481525090506006868690918060018154018082558091505060019003906000526020600020016000909192909192909192909192509190611238929190612294565b50806007878760405161124c929190613090565b908152602001604051809103902060008201518160000155602082015181600101908051906020019061128092919061220e565b50604082015181600201908051906020019061129d92919061220e565b5060608201518160030160006101000a81548173ffffffffffffffffffffffffffffffffffffffff021916908373ffffffffffffffffffffffffffffffffffffffff1602179055506080820151816004015560a0820151816005015560c0820151816006015590505060035484611314919061302f565b8888604051611324929190613090565b60405180910390208a73ffffffffffffffffffffffffffffffffffffffff167f1b365ef75dc6c5169a1f2ea4ad062fdc4945dbaf2edb42b9f1a82bb5633016b0858a8a8a8a60405161137a959493929190613518565b60405180910390a4505050505050505050565b60008060009054906101000a900473ffffffffffffffffffffffffffffffffffffffff16905090565b60045481565b60086020528060005260406000206000915090508060000154908060010160009054906101000a900473ffffffffffffffffffffffffffffffffffffffff169080600201805461140b90612f45565b80601f016020809104026020016040519081016040528092919081815260200182805461143790612f45565b80156114845780601f1061145957610100808354040283529160200191611484565b820191906000526020600020905b81548152906001019060200180831161146757829003601f168201915b50505050509080600301805461149990612f45565b80601f01602080910402602001604051908101604052809291908181526020018280546114c590612f45565b80156115125780601f106114e757610100808354040283529160200191611512565b820191906000526020600020905b8154815290600101906020018083116114f557829003601f168201915b5050505050908060040154908060050154908060060154908060070154908060080154908060090160009054906101000a900460ff1690508a565b600560009054906101000a900460ff161561159d576040517f08c379a0000000000000000000000000000000000000000000000000000000008152600401611594906135b2565b60405180910390fd5b6001600560006101000a81548160ff02191690831515021790555060006008600083815260200190815260200160002060405180610140016040529081600082015481526020016001820160009054906101000a900473ffffffffffffffffffffffffffffffffffffffff1673ffffffffffffffffffffffffffffffffffffffff1673ffffffffffffffffffffffffffffffffffffffff16815260200160028201805461164990612f45565b80601f016020809104026020016040519081016040528092919081815260200182805461167590612f45565b80156116c25780601f10611697576101008083540402835291602001916116c2565b820191906000526020600020905b8154815290600101906020018083116116a557829003601f168201915b505050505081526020016003820180546116db90612f45565b80601f016020809104026020016040519081016040528092919081815260200182805461170790612f45565b80156117545780601f1061172957610100808354040283529160200191611754565b820191906000526020600020905b81548152906001019060200180831161173757829003601f168201915b5050505050815260200160048201548152602001600582015481526020016006820154815260200160078201548152602001600882015481526020016009820160009054906101000a900460ff16151515158152505090503373ffffffffffffffffffffffffffffffffffffffff16816020015173ffffffffffffffffffffffffffffffffffffffff161461181e576040517f08c379a00000000000000000000000000000000000000000000000000000000081526004016118159061361e565b60405180910390fd5b6001151581610120015115151461186a576040517f08c379a00000000000000000000000000000000000000000000000000000000081526004016118619061368a565b60405180910390fd5b818160000151146118b0576040517f08c379a00000000000000000000000000000000000000000000000000000000081526004016118a7906136f6565b60405180910390fd5b8060c00151600a82606001516040516118c99190613747565b908152602001604051809103902060008282546118e6919061375e565b92505081905550600781606001516040516119019190613747565b908152602001604051809103902060030160009054906101000a900473ffffffffffffffffffffffffffffffffffffffff1673ffffffffffffffffffffffffffffffffffffffff1663a9059cbb338360c001516040518363ffffffff1660e01b8152600401611971929190613792565b602060405180830381600087803b15801561198b57600080fd5b505af115801561199f573d6000803e3d6000fd5b505050506040513d601f19601f820116820180604052508101906119c39190613324565b5060006018603c808460800151426119db919061375e565b6119e5919061302f565b6119ef919061302f565b6119f9919061302f565b90506000611a118360a001518461010001518461066c565b90503373ffffffffffffffffffffffffffffffffffffffff166108fc829081150290604051600060405180830381858888f19350505050158015611a59573d6000803e3d6000fd5b5060008361012001901515908115158152505082600860008681526020019081526020016000206000820151816000015560208201518160010160006101000a81548173ffffffffffffffffffffffffffffffffffffffff021916908373ffffffffffffffffffffffffffffffffffffffff1602179055506040820151816002019080519060200190611aed92919061220e565b506060820151816003019080519060200190611b0a92919061220e565b506080820151816004015560a0820151816005015560c0820151816006015560e0820151816007015561010082015181600801556101208201518160090160006101000a81548160ff02191690831515021790555090505042836020015173ffffffffffffffffffffffffffffffffffffffff1684600001517fa42a490aa1900a6d1c3d471cd8016e85aff5ef5a201380d68ae837f63193394c84604051611bb29190612776565b60405180910390a45050506000600560006101000a81548160ff02191690831515021790555050565b611be361231a565b6008600083815260200190815260200160002060405180610140016040529081600082015481526020016001820160009054906101000a900473ffffffffffffffffffffffffffffffffffffffff1673ffffffffffffffffffffffffffffffffffffffff1673ffffffffffffffffffffffffffffffffffffffff168152602001600282018054611c7290612f45565b80601f0160208091040260200160405190810160405280929190818152602001828054611c9e90612f45565b8015611ceb5780601f10611cc057610100808354040283529160200191611ceb565b820191906000526020600020905b815481529060010190602001808311611cce57829003601f168201915b50505050508152602001600382018054611d0490612f45565b80601f0160208091040260200160405190810160405280929190818152602001828054611d3090612f45565b8015611d7d5780601f10611d5257610100808354040283529160200191611d7d565b820191906000526020600020905b815481529060010190602001808311611d6057829003601f168201915b5050505050815260200160048201548152602001600582015481526020016006820154815260200160078201548152602001600882015481526020016009820160009054906101000a900460ff1615151515815250509050919050565b60035481565b611de8612385565b60078383604051611dfa929190613090565b90815260200160405180910390206040518060e001604052908160008201548152602001600182018054611e2d90612f45565b80601f0160208091040260200160405190810160405280929190818152602001828054611e5990612f45565b8015611ea65780601f10611e7b57610100808354040283529160200191611ea6565b820191906000526020600020905b815481529060010190602001808311611e8957829003601f168201915b50505050508152602001600282018054611ebf90612f45565b80601f0160208091040260200160405190810160405280929190818152602001828054611eeb90612f45565b8015611f385780601f10611f0d57610100808354040283529160200191611f38565b820191906000526020600020905b815481529060010190602001808311611f1b57829003601f168201915b505050505081526020016003820160009054906101000a900473ffffffffffffffffffffffffffffffffffffffff1673ffffffffffffffffffffffffffffffffffffffff1673ffffffffffffffffffffffffffffffffffffffff1681526020016004820154815260200160058201548152602001600682015481525050905092915050565b600a818051602081018201805184825260208301602085012081835280955050505050506000915090505481565b6009602052816000526040600020818154811061200757600080fd5b90600052602060002001600091509150505481565b6120246120a0565b600073ffffffffffffffffffffffffffffffffffffffff168173ffffffffffffffffffffffffffffffffffffffff161415612094576040517f08c379a000000000000000000000000000000000000000000000000000000000815260040161208b9061382d565b60405180910390fd5b61209d8161211e565b50565b6120a8612206565b73ffffffffffffffffffffffffffffffffffffffff166120c661138d565b73ffffffffffffffffffffffffffffffffffffffff161461211c576040517f08c379a000000000000000000000000000000000000000000000000000000000815260040161211390613899565b60405180910390fd5b565b60008060009054906101000a900473ffffffffffffffffffffffffffffffffffffffff169050816000806101000a81548173ffffffffffffffffffffffffffffffffffffffff021916908373ffffffffffffffffffffffffffffffffffffffff1602179055508173ffffffffffffffffffffffffffffffffffffffff168173ffffffffffffffffffffffffffffffffffffffff167f8be0079c531659141344cd1fd0a4f28419497f9722a3daafe3b4186f6b6457e060405160405180910390a35050565b600081600001549050919050565b6001816000016000828254019250508190555050565b600033905090565b82805461221a90612f45565b90600052602060002090601f01602090048101928261223c5760008555612283565b82601f1061225557805160ff1916838001178555612283565b82800160010185558215612283579182015b82811115612282578251825591602001919060010190612267565b5b50905061229091906123d8565b5090565b8280546122a090612f45565b90600052602060002090601f0160209004810192826122c25760008555612309565b82601f106122db57803560ff1916838001178555612309565b82800160010185558215612309579182015b828111156123085782358255916020019190600101906122ed565b5b50905061231691906123d8565b5090565b60405180610140016040528060008152602001600073ffffffffffffffffffffffffffffffffffffffff168152602001606081526020016060815260200160008152602001600081526020016000815260200160008152602001600081526020016000151581525090565b6040518060e00160405280600081526020016060815260200160608152602001600073ffffffffffffffffffffffffffffffffffffffff1681526020016000815260200160008152602001600081525090565b5b808211156123f15760008160009055506001016123d9565b5090565b6000604051905090565b600080fd5b600080fd5b600080fd5b600080fd5b6000601f19601f8301169050919050565b7f4e487b7100000000000000000000000000000000000000000000000000000000600052604160045260246000fd5b61245c82612413565b810181811067ffffffffffffffff8211171561247b5761247a612424565b5b80604052505050565b600061248e6123f5565b905061249a8282612453565b919050565b600067ffffffffffffffff8211156124ba576124b9612424565b5b6124c382612413565b9050602081019050919050565b82818337600083830152505050565b60006124f26124ed8461249f565b612484565b90508281526020810184848401111561250e5761250d61240e565b5b6125198482856124d0565b509392505050565b600082601f83011261253657612535612409565b5b81356125468482602086016124df565b91505092915050565b600060208284031215612565576125646123ff565b5b600082013567ffffffffffffffff81111561258357612582612404565b5b61258f84828501612521565b91505092915050565b6000819050919050565b6125ab81612598565b82525050565b600081519050919050565b600082825260208201905092915050565b60005b838110156125eb5780820151818401526020810190506125d0565b838111156125fa576000848401525b50505050565b600061260b826125b1565b61261581856125bc565b93506126258185602086016125cd565b61262e81612413565b840191505092915050565b600073ffffffffffffffffffffffffffffffffffffffff82169050919050565b600061266482612639565b9050919050565b61267481612659565b82525050565b600060e08201905061268f600083018a6125a2565b81810360208301526126a18189612600565b905081810360408301526126b58188612600565b90506126c4606083018761266b565b6126d160808301866125a2565b6126de60a08301856125a2565b6126eb60c08301846125a2565b98975050505050505050565b61270081612598565b811461270b57600080fd5b50565b60008135905061271d816126f7565b92915050565b60008060006060848603121561273c5761273b6123ff565b5b600061274a8682870161270e565b935050602061275b8682870161270e565b925050604061276c8682870161270e565b9150509250925092565b600060208201905061278b60008301846125a2565b92915050565b600081519050919050565b600082825260208201905092915050565b6000819050602082019050919050565b600082825260208201905092915050565b60006127d9826125b1565b6127e381856127bd565b93506127f38185602086016125cd565b6127fc81612413565b840191505092915050565b600061281383836127ce565b905092915050565b6000602082019050919050565b600061283382612791565b61283d818561279c565b93508360208202850161284f856127ad565b8060005b8581101561288b578484038952815161286c8582612807565b94506128778361281b565b925060208a01995050600181019050612853565b50829750879550505050505092915050565b600060208201905081810360008301526128b78184612828565b905092915050565b6128c881612659565b81146128d357600080fd5b50565b6000813590506128e5816128bf565b92915050565b600060208284031215612901576129006123ff565b5b600061290f848285016128d6565b91505092915050565b600081519050919050565b600082825260208201905092915050565b6000819050602082019050919050565b61294d81612598565b82525050565b600061295f8383612944565b60208301905092915050565b6000602082019050919050565b600061298382612918565b61298d8185612923565b935061299883612934565b8060005b838110156129c95781516129b08882612953565b97506129bb8361296b565b92505060018101905061299c565b5085935050505092915050565b600060208201905081810360008301526129f08184612978565b905092915050565b600080fd5b600080fd5b60008083601f840112612a1857612a17612409565b5b8235905067ffffffffffffffff811115612a3557612a346129f8565b5b602083019150836001820283011115612a5157612a506129fd565b5b9250929050565b60008060208385031215612a6f57612a6e6123ff565b5b600083013567ffffffffffffffff811115612a8d57612a8c612404565b5b612a9985828601612a02565b92509250509250929050565b600060208284031215612abb57612aba6123ff565b5b6000612ac98482850161270e565b91505092915050565b60006020820190508181036000830152612aec8184612600565b905092915050565b600080600060408486031215612b0d57612b0c6123ff565b5b600084013567ffffffffffffffff811115612b2b57612b2a612404565b5b612b3786828701612a02565b93509350506020612b4a8682870161270e565b9150509250925092565b600080600080600080600060a0888a031215612b7357612b726123ff565b5b6000612b818a828b016128d6565b975050602088013567ffffffffffffffff811115612ba257612ba1612404565b5b612bae8a828b01612a02565b9650965050604088013567ffffffffffffffff811115612bd157612bd0612404565b5b612bdd8a828b01612a02565b94509450506060612bf08a828b0161270e565b9250506080612c018a828b0161270e565b91505092959891949750929550565b6000602082019050612c25600083018461266b565b92915050565b60008115159050919050565b612c4081612c2b565b82525050565b600061014082019050612c5c600083018d6125a2565b612c69602083018c61266b565b8181036040830152612c7b818b612600565b90508181036060830152612c8f818a612600565b9050612c9e60808301896125a2565b612cab60a08301886125a2565b612cb860c08301876125a2565b612cc560e08301866125a2565b612cd36101008301856125a2565b612ce1610120830184612c37565b9b9a5050505050505050505050565b612cf981612659565b82525050565b612d0881612c2b565b82525050565b600061014083016000830151612d276000860182612944565b506020830151612d3a6020860182612cf0565b5060408301518482036040860152612d5282826127ce565b91505060608301518482036060860152612d6c82826127ce565b9150506080830151612d816080860182612944565b5060a0830151612d9460a0860182612944565b5060c0830151612da760c0860182612944565b5060e0830151612dba60e0860182612944565b50610100830151612dcf610100860182612944565b50610120830151612de4610120860182612cff565b508091505092915050565b60006020820190508181036000830152612e098184612d0e565b905092915050565b600060e083016000830151612e296000860182612944565b5060208301518482036020860152612e4182826127ce565b91505060408301518482036040860152612e5b82826127ce565b9150506060830151612e706060860182612cf0565b506080830151612e836080860182612944565b5060a0830151612e9660a0860182612944565b5060c0830151612ea960c0860182612944565b508091505092915050565b60006020820190508181036000830152612ece8184612e11565b905092915050565b60008060408385031215612eed57612eec6123ff565b5b6000612efb858286016128d6565b9250506020612f0c8582860161270e565b9150509250929050565b7f4e487b7100000000000000000000000000000000000000000000000000000000600052602260045260246000fd5b60006002820490506001821680612f5d57607f821691505b60208210811415612f7157612f70612f16565b5b50919050565b7f4e487b7100000000000000000000000000000000000000000000000000000000600052601160045260246000fd5b6000612fb182612598565b9150612fbc83612598565b9250817fffffffffffffffffffffffffffffffffffffffffffffffffffffffffffffffff0483118215151615612ff557612ff4612f77565b5b828202905092915050565b7f4e487b7100000000000000000000000000000000000000000000000000000000600052601260045260246000fd5b600061303a82612598565b915061304583612598565b92508261305557613054613000565b5b828204905092915050565b600081905092915050565b60006130778385613060565b93506130848385846124d0565b82840190509392505050565b600061309d82848661306b565b91508190509392505050565b7f796f75206d757374207061792066656520666f72207374616b696e6700000000600082015250565b60006130df601c836125bc565b91506130ea826130a9565b602082019050919050565b6000602082019050818103600083015261310e816130d2565b9050919050565b7f796f752063616e2774207374616b65203020746f6b656e730000000000000000600082015250565b600061314b6018836125bc565b915061315682613115565b602082019050919050565b6000602082019050818103600083015261317a8161313e565b9050919050565b7f796f752063616e2774207374616b65206e6f74206578697374656e7420746f6b60008201527f656e000000000000000000000000000000000000000000000000000000000000602082015250565b60006131dd6022836125bc565b91506131e882613181565b604082019050919050565b6000602082019050818103600083015261320c816131d0565b9050919050565b600081519050613222816126f7565b92915050565b60006020828403121561323e5761323d6123ff565b5b600061324c84828501613213565b91505092915050565b7f796f752068617665206e6f7420656e6f75676820746f6b656e73000000000000600082015250565b600061328b601a836125bc565b915061329682613255565b602082019050919050565b600060208201905081810360008301526132ba8161327e565b9050919050565b60006060820190506132d6600083018661266b565b6132e3602083018561266b565b6132f060408301846125a2565b949350505050565b61330181612c2b565b811461330c57600080fd5b50565b60008151905061331e816132f8565b92915050565b60006020828403121561333a576133396123ff565b5b60006133488482850161330f565b91505092915050565b600061335c82612598565b915061336783612598565b9250827fffffffffffffffffffffffffffffffffffffffffffffffffffffffffffffffff0382111561339c5761339b612f77565b5b828201905092915050565b7f596f752063616e277420616464206e6f74206578697374696e6720746f6b656e600082015250565b60006133dd6020836125bc565b91506133e8826133a7565b602082019050919050565b6000602082019050818103600083015261340c816133d0565b9050919050565b7f796f7520646964206e6f7420656e746572206e616d65206f722073796d626f6c600082015250565b60006134496020836125bc565b915061345482613413565b602082019050919050565b600060208201905081810360008301526134788161343c565b9050919050565b7f70726963652063616e2774206265203000000000000000000000000000000000600082015250565b60006134b56010836125bc565b91506134c08261347f565b602082019050919050565b600060208201905081810360008301526134e4816134a8565b9050919050565b60006134f783856125bc565b93506135048385846124d0565b61350d83612413565b840190509392505050565b600060808201905061352d60008301886125a2565b81810360208301526135408186886134eb565b905061354f60408301856125a2565b61355c60608301846125a2565b9695505050505050565b7f7265656e7472616e637900000000000000000000000000000000000000000000600082015250565b600061359c600a836125bc565b91506135a782613566565b602082019050919050565b600060208201905081810360008301526135cb8161358f565b9050919050565b7f6e6f742074686520706f736974696f6e206f776e657200000000000000000000600082015250565b60006136086016836125bc565b9150613613826135d2565b602082019050919050565b60006020820190508181036000830152613637816135fb565b9050919050565b7f706f736974696f6e2068617320616c7265616479206265656e20636c6f736564600082015250565b60006136746020836125bc565b915061367f8261363e565b602082019050919050565b600060208201905081810360008301526136a381613667565b9050919050565b7f6e6f7420726967687420706f736974696f6e2069640000000000000000000000600082015250565b60006136e06015836125bc565b91506136eb826136aa565b602082019050919050565b6000602082019050818103600083015261370f816136d3565b9050919050565b6000613721826125b1565b61372b8185613060565b935061373b8185602086016125cd565b80840191505092915050565b60006137538284613716565b915081905092915050565b600061376982612598565b915061377483612598565b92508282101561378757613786612f77565b5b828203905092915050565b60006040820190506137a7600083018561266b565b6137b460208301846125a2565b9392505050565b7f4f776e61626c653a206e6577206f776e657220697320746865207a65726f206160008201527f6464726573730000000000000000000000000000000000000000000000000000602082015250565b60006138176026836125bc565b9150613822826137bb565b604082019050919050565b600060208201905081810360008301526138468161380a565b9050919050565b7f4f776e61626c653a2063616c6c6572206973206e6f7420746865206f776e6572600082015250565b60006138836020836125bc565b915061388e8261384d565b602082019050919050565b600060208201905081810360008301526138b281613876565b905091905056fea2646970667358221220a3af37220ac39d798c3011800d35043822cac86fb4953031439d27457456ecff64736f6c63430008090033",
  "linkReferences": {},
  "deployedLinkReferences": {}
}